{
  "contractName": "IdentityStoreInherit",
  "abi": [
    {
      "constant": false,
      "inputs": [
        {
          "name": "_tenantHash",
          "type": "bytes32"
        },
        {
          "name": "_userAddress",
          "type": "address"
        },
        {
          "name": "_timestamp",
          "type": "uint256"
        },
        {
          "name": "_tenantId",
          "type": "string"
        }
      ],
      "name": "setTenant",
      "outputs": [],
      "payable": false,
      "stateMutability": "nonpayable",
      "type": "function"
    },
    {
      "constant": false,
      "inputs": [],
      "name": "renounceOwnership",
      "outputs": [],
      "payable": false,
      "stateMutability": "nonpayable",
      "type": "function"
    },
    {
      "constant": true,
      "inputs": [
        {
          "name": "_tenantId",
          "type": "string"
        },
        {
          "name": "_userAddress",
          "type": "address"
        },
        {
          "name": "_minTimestamp",
          "type": "uint256"
        }
      ],
      "name": "isValid",
      "outputs": [
        {
          "name": "",
          "type": "bool"
        }
      ],
      "payable": false,
      "stateMutability": "view",
      "type": "function"
    },
    {
      "constant": true,
      "inputs": [],
      "name": "owner",
      "outputs": [
        {
          "name": "",
          "type": "address"
        }
      ],
      "payable": false,
      "stateMutability": "view",
      "type": "function"
    },
    {
      "constant": false,
      "inputs": [
        {
          "name": "_newOwner",
          "type": "address"
        }
      ],
      "name": "transferOwnership",
      "outputs": [],
      "payable": false,
      "stateMutability": "nonpayable",
      "type": "function"
    },
    {
      "anonymous": false,
      "inputs": [
        {
          "indexed": true,
          "name": "previousOwner",
          "type": "address"
        }
      ],
      "name": "OwnershipRenounced",
      "type": "event"
    },
    {
      "anonymous": false,
      "inputs": [
        {
          "indexed": true,
          "name": "previousOwner",
          "type": "address"
        },
        {
          "indexed": true,
          "name": "newOwner",
          "type": "address"
        }
      ],
      "name": "OwnershipTransferred",
      "type": "event"
    },
    {
      "constant": false,
      "inputs": [
        {
          "name": "_oldHash",
          "type": "bytes32"
        },
        {
          "name": "_newHash",
          "type": "bytes32"
        },
        {
          "name": "_timestamp",
          "type": "uint256"
        }
      ],
      "name": "updateHashPublic",
      "outputs": [],
      "payable": false,
      "stateMutability": "nonpayable",
      "type": "function"
    },
    {
      "constant": false,
      "inputs": [
        {
          "name": "oldUserAddress",
          "type": "address"
        },
        {
          "name": "newUserAddress",
          "type": "address"
        }
      ],
      "name": "updateAddressPublic",
      "outputs": [],
      "payable": false,
      "stateMutability": "nonpayable",
      "type": "function"
    },
    {
      "constant": false,
      "inputs": [
        {
          "name": "_tenantHash",
          "type": "bytes32"
        },
        {
          "name": "_timestamp",
          "type": "uint256"
        }
      ],
      "name": "updateTimestampPublic",
      "outputs": [],
      "payable": false,
      "stateMutability": "nonpayable",
      "type": "function"
    },
    {
      "constant": false,
      "inputs": [
        {
          "name": "userAddress",
          "type": "address"
        }
      ],
      "name": "userAddressExistsPublic",
      "outputs": [
        {
          "name": "",
          "type": "bool"
        }
      ],
      "payable": false,
      "stateMutability": "nonpayable",
      "type": "function"
    },
    {
      "constant": false,
      "inputs": [
        {
          "name": "tenantHash",
          "type": "bytes32"
        }
      ],
      "name": "userTenantHashExistsPublic",
      "outputs": [
        {
          "name": "",
          "type": "bool"
        }
      ],
      "payable": false,
      "stateMutability": "nonpayable",
      "type": "function"
    }
  ],
  "bytecode": "0x6080604052336000806101000a81548173ffffffffffffffffffffffffffffffffffffffff021916908373ffffffffffffffffffffffffffffffffffffffff160217905550611653806100536000396000f3006080604052600436106100a4576000357c0100000000000000000000000000000000000000000000000000000000900463ffffffff1680630777f6da146100a957806348d7de631461010c57806348e0ebef146101ad578063715018a6146101f657806377cfe1c11461020d5780638da5cb5b146102b8578063d9cbc4361461030f578063f2fde38b14610358578063f63234c01461039b578063fee92e60146103f6575b600080fd5b3480156100b557600080fd5b5061010a600480360381019080803573ffffffffffffffffffffffffffffffffffffffff169060200190929190803573ffffffffffffffffffffffffffffffffffffffff169060200190929190505050610431565b005b34801561011857600080fd5b506101ab6004803603810190808035600019169060200190929190803573ffffffffffffffffffffffffffffffffffffffff16906020019092919080359060200190929190803590602001908201803590602001908080601f016020809104026020016040519081016040528093929190818152602001838380828437820191505050505050919291929050505061043f565b005b3480156101b957600080fd5b506101f460048036038101908080356000191690602001909291908035600019169060200190929190803590602001909291905050506106db565b005b34801561020257600080fd5b5061020b6106eb565b005b34801561021957600080fd5b5061029e600480360381019080803590602001908201803590602001908080601f0160208091040260200160405190810160405280939291908181526020018383808284378201915050505050509192919290803573ffffffffffffffffffffffffffffffffffffffff169060200190929190803590602001909291905050506107ed565b604051808215151515815260200191505060405180910390f35b3480156102c457600080fd5b506102cd610a1e565b604051808273ffffffffffffffffffffffffffffffffffffffff1673ffffffffffffffffffffffffffffffffffffffff16815260200191505060405180910390f35b34801561031b57600080fd5b5061033e6004803603810190808035600019169060200190929190505050610a43565b604051808215151515815260200191505060405180910390f35b34801561036457600080fd5b50610399600480360381019080803573ffffffffffffffffffffffffffffffffffffffff169060200190929190505050610a55565b005b3480156103a757600080fd5b506103dc600480360381019080803573ffffffffffffffffffffffffffffffffffffffff169060200190929190505050610abc565b604051808215151515815260200191505060405180910390f35b34801561040257600080fd5b5061042f600480360381019080803560001916906020019092919080359060200190929190505050610ace565b005b61043b8282610adc565b5050565b610447611515565b6000806000809054906101000a900473ffffffffffffffffffffffffffffffffffffffff1673ffffffffffffffffffffffffffffffffffffffff163373ffffffffffffffffffffffffffffffffffffffff161415156104a557600080fd5b6104ae86610ed0565b1580156104c157506104bf87610f36565b155b156105c1576060604051908101604052808860001916815260200186815260200185815250925082600160008873ffffffffffffffffffffffffffffffffffffffff1673ffffffffffffffffffffffffffffffffffffffff1681526020019081526020016000206000820151816000019060001916905560208201518160010155604082015181600201908051906020019061055e92919061153a565b509050508560026000896000191660001916815260200190815260200160002060006101000a81548173ffffffffffffffffffffffffffffffffffffffff021916908373ffffffffffffffffffffffffffffffffffffffff1602179055506106d2565b6105ca86610ed0565b80156105dc57506105da87610f36565b155b1561063657600160008773ffffffffffffffffffffffffffffffffffffffff1673ffffffffffffffffffffffffffffffffffffffff168152602001908152602001600020600001549150610631828887610fa4565b6106d2565b61063f87610f36565b8015610651575061064f86610ed0565b155b156106a35760026000886000191660001916815260200190815260200160002060009054906101000a900473ffffffffffffffffffffffffffffffffffffffff16905061069e8187610adc565b6106d2565b6106ac87610f36565b80156106bd57506106bc86610ed0565b5b156106d1576106cc878661133a565b6106d2565b5b50505050505050565b6106e6838383610fa4565b505050565b6000809054906101000a900473ffffffffffffffffffffffffffffffffffffffff1673ffffffffffffffffffffffffffffffffffffffff163373ffffffffffffffffffffffffffffffffffffffff1614151561074657600080fd5b6000809054906101000a900473ffffffffffffffffffffffffffffffffffffffff1673ffffffffffffffffffffffffffffffffffffffff167ff8df31144d9c2f0f6b59d69b8b98abd5459d07f2742c4df920b25aae33c6482060405160405180910390a260008060006101000a81548173ffffffffffffffffffffffffffffffffffffffff021916908373ffffffffffffffffffffffffffffffffffffffff160217905550565b60006107f7611515565b61080084610ed0565b151561080f5760009150610a16565b600160008573ffffffffffffffffffffffffffffffffffffffff1673ffffffffffffffffffffffffffffffffffffffff1681526020019081526020016000206060604051908101604052908160008201546000191660001916815260200160018201548152602001600282018054600181600116156101000203166002900480601f01602080910402602001604051908101604052809291908181526020018280546001816001161561010002031660029004801561090f5780601f106108e45761010080835404028352916020019161090f565b820191906000526020600020905b8154815290600101906020018083116108f257829003601f168201915b5050505050815250509050846040518082805190602001908083835b602083101515610950578051825260208201915060208101905060208303925061092b565b6001836020036101000a03801982511681845116808217855250505050505090500191505060405180910390206000191681604001516040518082805190602001908083835b6020831015156109bb5780518252602082019150602081019050602083039250610996565b6001836020036101000a0380198251168184511680821785525050505050509050019150506040518091039020600019161415156109fc5760009150610a16565b8281602001511015610a115760009150610a16565b600191505b509392505050565b6000809054906101000a900473ffffffffffffffffffffffffffffffffffffffff1681565b6000610a4e82610f36565b9050919050565b6000809054906101000a900473ffffffffffffffffffffffffffffffffffffffff1673ffffffffffffffffffffffffffffffffffffffff163373ffffffffffffffffffffffffffffffffffffffff16141515610ab057600080fd5b610ab98161141b565b50565b6000610ac782610ed0565b9050919050565b610ad8828261133a565b5050565b610ae4611515565b6000809054906101000a900473ffffffffffffffffffffffffffffffffffffffff1673ffffffffffffffffffffffffffffffffffffffff163373ffffffffffffffffffffffffffffffffffffffff16141515610b3f57600080fd5b600160008473ffffffffffffffffffffffffffffffffffffffff1673ffffffffffffffffffffffffffffffffffffffff1681526020019081526020016000206060604051908101604052908160008201546000191660001916815260200160018201548152602001600282018054600181600116156101000203166002900480601f016020809104026020016040519081016040528092919081815260200182805460018160011615610100020316600290048015610c3f5780601f10610c1457610100808354040283529160200191610c3f565b820191906000526020600020905b815481529060010190602001808311610c2257829003601f168201915b5050505050815250509050610c5382610ed0565b151515610cee576040517f08c379a000000000000000000000000000000000000000000000000000000000815260040180806020018281038252602f8152602001807f5468657265277320616c726561647920616e206163636f756e7420746965642081526020017f746f20746869732061646472657373000000000000000000000000000000000081525060400191505060405180910390fd5b610cf783610ed0565b1515610d91576040517f08c379a000000000000000000000000000000000000000000000000000000000815260040180806020018281038252602d8152602001807f54686572652773206e6f206163636f756e74207469656420746f20746865206181526020017f646472657373206f726967696e0000000000000000000000000000000000000081525060400191505060405180910390fd5b816002600083600001516000191660001916815260200190815260200160002060006101000a81548173ffffffffffffffffffffffffffffffffffffffff021916908373ffffffffffffffffffffffffffffffffffffffff16021790555080600160008473ffffffffffffffffffffffffffffffffffffffff1673ffffffffffffffffffffffffffffffffffffffff16815260200190815260200160002060008201518160000190600019169055602082015181600101556040820151816002019080519060200190610e6592919061153a565b50905050600160008473ffffffffffffffffffffffffffffffffffffffff1673ffffffffffffffffffffffffffffffffffffffff1681526020019081526020016000206000808201600090556001820160009055600282016000610ec991906115ba565b5050505050565b600080600102600160008473ffffffffffffffffffffffffffffffffffffffff1673ffffffffffffffffffffffffffffffffffffffff16815260200190815260200160002060000154600019161415610f2c5760009050610f31565b600190505b919050565b60008060026000846000191660001916815260200190815260200160002060009054906101000a900473ffffffffffffffffffffffffffffffffffffffff1673ffffffffffffffffffffffffffffffffffffffff161415610f9a5760009050610f9f565b600190505b919050565b6000610fae611515565b610fb6611515565b610fbf86610f36565b1515611033576040517f08c379a00000000000000000000000000000000000000000000000000000000081526004018080602001828103825260188152602001807f4f6c64206861736820646f6573206e6f742065786973742e000000000000000081525060200191505060405180910390fd5b61103c85610f36565b1515156110b1576040517f08c379a000000000000000000000000000000000000000000000000000000000815260040180806020018281038252601f8152602001807f4e6577206861736820697320616c726561647920726567697374657265642e0081525060200191505060405180910390fd5b60026000876000191660001916815260200190815260200160002060009054906101000a900473ffffffffffffffffffffffffffffffffffffffff169250600160008473ffffffffffffffffffffffffffffffffffffffff1673ffffffffffffffffffffffffffffffffffffffff1681526020019081526020016000206060604051908101604052908160008201546000191660001916815260200160018201548152602001600282018054600181600116156101000203166002900480601f0160208091040260200160405190810160405280929190818152602001828054600181600116156101000203166002900480156111ef5780601f106111c4576101008083540402835291602001916111ef565b820191906000526020600020905b8154815290600101906020018083116111d257829003601f168201915b5050505050815250509150606060405190810160405280866000191681526020018581526020018360400151815250905080600160008573ffffffffffffffffffffffffffffffffffffffff1673ffffffffffffffffffffffffffffffffffffffff1681526020019081526020016000206000820151816000019060001916905560208201518160010155604082015181600201908051906020019061129692919061153a565b5090505060026000876000191660001916815260200190815260200160002060006101000a81549073ffffffffffffffffffffffffffffffffffffffff02191690558260026000876000191660001916815260200190815260200160002060006101000a81548173ffffffffffffffffffffffffffffffffffffffff021916908373ffffffffffffffffffffffffffffffffffffffff160217905550505050505050565b6000809054906101000a900473ffffffffffffffffffffffffffffffffffffffff1673ffffffffffffffffffffffffffffffffffffffff163373ffffffffffffffffffffffffffffffffffffffff1614151561139557600080fd5b806001600060026000866000191660001916815260200190815260200160002060009054906101000a900473ffffffffffffffffffffffffffffffffffffffff1673ffffffffffffffffffffffffffffffffffffffff1673ffffffffffffffffffffffffffffffffffffffff168152602001908152602001600020600101819055505050565b600073ffffffffffffffffffffffffffffffffffffffff168173ffffffffffffffffffffffffffffffffffffffff161415151561145757600080fd5b8073ffffffffffffffffffffffffffffffffffffffff166000809054906101000a900473ffffffffffffffffffffffffffffffffffffffff1673ffffffffffffffffffffffffffffffffffffffff167f8be0079c531659141344cd1fd0a4f28419497f9722a3daafe3b4186f6b6457e060405160405180910390a3806000806101000a81548173ffffffffffffffffffffffffffffffffffffffff021916908373ffffffffffffffffffffffffffffffffffffffff16021790555050565b6060604051908101604052806000801916815260200160008152602001606081525090565b828054600181600116156101000203166002900490600052602060002090601f016020900481019282601f1061157b57805160ff19168380011785556115a9565b828001600101855582156115a9579182015b828111156115a857825182559160200191906001019061158d565b5b5090506115b69190611602565b5090565b50805460018160011615610100020316600290046000825580601f106115e057506115ff565b601f0160209004906000526020600020908101906115fe9190611602565b5b50565b61162491905b80821115611620576000816000905550600101611608565b5090565b905600a165627a7a723058208b683f86b845e04e885c2898632e6a26fa944c3bbb04b1b4c80430cc0b51e9e30029",
  "source": "pragma solidity ^0.4.24;\n\nimport \"contracts/IdentityStore_Sample.sol\";\n\ncontract IdentityStoreInherit is IdentityStore {\n    \n    function updateHashPublic(\n        bytes32 _oldHash, \n        bytes32 _newHash, \n        uint256 _timestamp) public {\n        updateHash(_oldHash,_newHash, _timestamp);\n    }\n\n    function updateAddressPublic(\n        address oldUserAddress, \n        address newUserAddress) public  {\n        updateAddress(oldUserAddress,newUserAddress);\n    }\n\n    function updateTimestampPublic(\n        bytes32 _tenantHash, \n        uint256 _timestamp) public  {\n        updateTimestamp(_tenantHash,_timestamp);\n    }\n\n    function userAddressExistsPublic(\n        address userAddress) public returns(bool) {\n        return userAddressExists(userAddress);\n    }\n\n    function userTenantHashExistsPublic(\n        bytes32 tenantHash) public  returns(bool) {\n        return userTenantHashExists(tenantHash);\n    }\n}",
  "sourcePath": "/Users/fernandolobato/Desktop/Microsoft-Identities-on-the-Ethereum-Blockchain/identity-smart-contract/contracts/IdentityInheritTest.sol",
  "compiler": {
    "name": "solc",
    "version": "0.4.24+commit.e67f0147.Emscripten.clang"
  },
  "schemaVersion": "2.0.1",
  "updatedAt": "2018-07-24T06:55:18.418Z"
}