{
  "contractName": "DMB",
  "abi": [
    {
      "constant": true,
      "inputs": [
        {
          "name": "_interfaceId",
          "type": "bytes4"
        }
      ],
      "name": "supportsInterface",
      "outputs": [
        {
          "name": "",
          "type": "bool"
        }
      ],
      "payable": false,
      "stateMutability": "view",
      "type": "function"
    },
    {
      "constant": true,
      "inputs": [],
      "name": "name",
      "outputs": [
        {
          "name": "",
          "type": "string"
        }
      ],
      "payable": false,
      "stateMutability": "view",
      "type": "function"
    },
    {
      "constant": true,
      "inputs": [
        {
          "name": "_tokenId",
          "type": "uint256"
        }
      ],
      "name": "getApproved",
      "outputs": [
        {
          "name": "",
          "type": "address"
        }
      ],
      "payable": false,
      "stateMutability": "view",
      "type": "function"
    },
    {
      "constant": false,
      "inputs": [
        {
          "name": "_to",
          "type": "address"
        },
        {
          "name": "_tokenId",
          "type": "uint256"
        }
      ],
      "name": "approve",
      "outputs": [],
      "payable": false,
      "stateMutability": "nonpayable",
      "type": "function"
    },
    {
      "constant": true,
      "inputs": [],
      "name": "totalSupply",
      "outputs": [
        {
          "name": "",
          "type": "uint256"
        }
      ],
      "payable": false,
      "stateMutability": "view",
      "type": "function"
    },
    {
      "constant": true,
      "inputs": [],
      "name": "InterfaceId_ERC165",
      "outputs": [
        {
          "name": "",
          "type": "bytes4"
        }
      ],
      "payable": false,
      "stateMutability": "view",
      "type": "function"
    },
    {
      "constant": false,
      "inputs": [
        {
          "name": "_from",
          "type": "address"
        },
        {
          "name": "_to",
          "type": "address"
        },
        {
          "name": "_tokenId",
          "type": "uint256"
        }
      ],
      "name": "transferFrom",
      "outputs": [],
      "payable": false,
      "stateMutability": "nonpayable",
      "type": "function"
    },
    {
      "constant": true,
      "inputs": [
        {
          "name": "_owner",
          "type": "address"
        },
        {
          "name": "_index",
          "type": "uint256"
        }
      ],
      "name": "tokenOfOwnerByIndex",
      "outputs": [
        {
          "name": "",
          "type": "uint256"
        }
      ],
      "payable": false,
      "stateMutability": "view",
      "type": "function"
    },
    {
      "constant": false,
      "inputs": [
        {
          "name": "_from",
          "type": "address"
        },
        {
          "name": "_to",
          "type": "address"
        },
        {
          "name": "_tokenId",
          "type": "uint256"
        }
      ],
      "name": "safeTransferFrom",
      "outputs": [],
      "payable": false,
      "stateMutability": "nonpayable",
      "type": "function"
    },
    {
      "constant": true,
      "inputs": [
        {
          "name": "_tokenId",
          "type": "uint256"
        }
      ],
      "name": "exists",
      "outputs": [
        {
          "name": "",
          "type": "bool"
        }
      ],
      "payable": false,
      "stateMutability": "view",
      "type": "function"
    },
    {
      "constant": true,
      "inputs": [
        {
          "name": "_index",
          "type": "uint256"
        }
      ],
      "name": "tokenByIndex",
      "outputs": [
        {
          "name": "",
          "type": "uint256"
        }
      ],
      "payable": false,
      "stateMutability": "view",
      "type": "function"
    },
    {
      "constant": true,
      "inputs": [
        {
          "name": "_tokenId",
          "type": "uint256"
        }
      ],
      "name": "ownerOf",
      "outputs": [
        {
          "name": "",
          "type": "address"
        }
      ],
      "payable": false,
      "stateMutability": "view",
      "type": "function"
    },
    {
      "constant": true,
      "inputs": [
        {
          "name": "_owner",
          "type": "address"
        }
      ],
      "name": "balanceOf",
      "outputs": [
        {
          "name": "",
          "type": "uint256"
        }
      ],
      "payable": false,
      "stateMutability": "view",
      "type": "function"
    },
    {
      "constant": true,
      "inputs": [],
      "name": "erc721TokenId",
      "outputs": [
        {
          "name": "",
          "type": "uint256"
        }
      ],
      "payable": false,
      "stateMutability": "view",
      "type": "function"
    },
    {
      "constant": true,
      "inputs": [],
      "name": "symbol",
      "outputs": [
        {
          "name": "",
          "type": "string"
        }
      ],
      "payable": false,
      "stateMutability": "view",
      "type": "function"
    },
    {
      "constant": false,
      "inputs": [
        {
          "name": "_to",
          "type": "address"
        },
        {
          "name": "_approved",
          "type": "bool"
        }
      ],
      "name": "setApprovalForAll",
      "outputs": [],
      "payable": false,
      "stateMutability": "nonpayable",
      "type": "function"
    },
    {
      "constant": false,
      "inputs": [
        {
          "name": "_from",
          "type": "address"
        },
        {
          "name": "_to",
          "type": "address"
        },
        {
          "name": "_tokenId",
          "type": "uint256"
        },
        {
          "name": "_data",
          "type": "bytes"
        }
      ],
      "name": "safeTransferFrom",
      "outputs": [],
      "payable": false,
      "stateMutability": "nonpayable",
      "type": "function"
    },
    {
      "constant": true,
      "inputs": [
        {
          "name": "_tokenId",
          "type": "uint256"
        }
      ],
      "name": "tokenURI",
      "outputs": [
        {
          "name": "",
          "type": "string"
        }
      ],
      "payable": false,
      "stateMutability": "view",
      "type": "function"
    },
    {
      "constant": true,
      "inputs": [
        {
          "name": "_owner",
          "type": "address"
        },
        {
          "name": "_operator",
          "type": "address"
        }
      ],
      "name": "isApprovedForAll",
      "outputs": [
        {
          "name": "",
          "type": "bool"
        }
      ],
      "payable": false,
      "stateMutability": "view",
      "type": "function"
    },
    {
      "inputs": [],
      "payable": false,
      "stateMutability": "nonpayable",
      "type": "constructor"
    },
    {
      "anonymous": false,
      "inputs": [
        {
          "indexed": true,
          "name": "_from",
          "type": "address"
        },
        {
          "indexed": true,
          "name": "_to",
          "type": "address"
        },
        {
          "indexed": true,
          "name": "_tokenId",
          "type": "uint256"
        }
      ],
      "name": "Transfer",
      "type": "event"
    },
    {
      "anonymous": false,
      "inputs": [
        {
          "indexed": true,
          "name": "_owner",
          "type": "address"
        },
        {
          "indexed": true,
          "name": "_approved",
          "type": "address"
        },
        {
          "indexed": true,
          "name": "_tokenId",
          "type": "uint256"
        }
      ],
      "name": "Approval",
      "type": "event"
    },
    {
      "anonymous": false,
      "inputs": [
        {
          "indexed": true,
          "name": "_owner",
          "type": "address"
        },
        {
          "indexed": true,
          "name": "_operator",
          "type": "address"
        },
        {
          "indexed": false,
          "name": "_approved",
          "type": "bool"
        }
      ],
      "name": "ApprovalForAll",
      "type": "event"
    },
    {
      "constant": false,
      "inputs": [
        {
          "name": "_tenantId",
          "type": "string"
        },
        {
          "name": "_uri",
          "type": "string"
        }
      ],
      "name": "createNewPost",
      "outputs": [],
      "payable": false,
      "stateMutability": "nonpayable",
      "type": "function"
    },
    {
      "constant": false,
      "inputs": [
        {
          "name": "_tenantId",
          "type": "string"
        },
        {
          "name": "affiliation",
          "type": "string"
        }
      ],
      "name": "setTenantId",
      "outputs": [],
      "payable": false,
      "stateMutability": "nonpayable",
      "type": "function"
    },
    {
      "constant": true,
      "inputs": [
        {
          "name": "tokenId",
          "type": "uint256"
        }
      ],
      "name": "getTokenTenantId",
      "outputs": [
        {
          "name": "",
          "type": "string"
        }
      ],
      "payable": false,
      "stateMutability": "view",
      "type": "function"
    },
    {
      "constant": true,
      "inputs": [
        {
          "name": "tokenId",
          "type": "uint256"
        }
      ],
      "name": "getPostAuthorAffiliation",
      "outputs": [
        {
          "name": "",
          "type": "string"
        }
      ],
      "payable": false,
      "stateMutability": "view",
      "type": "function"
    }
  ],
  "bytecode": "0x60c0604052601a60808190527f446563656e7472616c697a654d6573736167696e67426f61726400000000000060a09081526200004091600c9190620002f1565b506040805180820190915260038082527f444d42000000000000000000000000000000000000000000000000000000000060209092019182526200008791600d91620002f1565b506001600e5560128054600160a060020a031916732f573d44cde240d3938f0304509f97528accace5179055348015620000c057600080fd5b50604080518082018252601a81527f446563656e7472616c697a654d6573736167696e67426f6172640000000000006020808301919091528251808401909352600383527f444d42000000000000000000000000000000000000000000000000000000000090830152906200015e7f01ffc9a70000000000000000000000000000000000000000000000000000000064010000000062000284810204565b620001927f80ac58cd0000000000000000000000000000000000000000000000000000000064010000000062000284810204565b620001c67f4f558e790000000000000000000000000000000000000000000000000000000064010000000062000284810204565b8151620001db906005906020850190620002f1565b508051620001f1906006906020840190620002f1565b50620002267f780e9d630000000000000000000000000000000000000000000000000000000064010000000062000284810204565b6200025a7f5b5e139f0000000000000000000000000000000000000000000000000000000064010000000062000284810204565b505060125460138054600160a060020a031916600160a060020a0390921691909117905562000396565b7fffffffff000000000000000000000000000000000000000000000000000000008082161415620002b457600080fd5b7fffffffff00000000000000000000000000000000000000000000000000000000166000908152602081905260409020805460ff19166001179055565b828054600181600116156101000203166002900490600052602060002090601f016020900481019282601f106200033457805160ff191683800117855562000364565b8280016001018555821562000364579182015b828111156200036457825182559160200191906001019062000347565b506200037292915062000376565b5090565b6200039391905b808211156200037257600081556001016200037d565b90565b61155080620003a66000396000f3006080604052600436106101325763ffffffff7c010000000000000000000000000000000000000000000000000000000060003504166301ffc9a7811461013757806306fdde0314610182578063081812fc1461020c578063095ea7b31461024057806318160ddd1461026657806319fa8f501461028d57806323b872dd146102d45780632f745c59146102fe57806332ddb2b91461032257806342842e0e1461033a5780634de6c04d146103645780634f558e79146103fb5780634f6ccce71461041357806355995c181461042b5780636352211e1461044357806370a082311461045b5780637239c5ea1461047c57806395d89b4114610491578063a22cb465146104a6578063b4d9e5b5146104cc578063b88d4fde14610563578063c87b56dd146105d2578063e985e9c5146105ea575b600080fd5b34801561014357600080fd5b5061016e7bffffffffffffffffffffffffffffffffffffffffffffffffffffffff1960043516610611565b604080519115158252519081900360200190f35b34801561018e57600080fd5b50610197610645565b6040805160208082528351818301528351919283929083019185019080838360005b838110156101d15781810151838201526020016101b9565b50505050905090810190601f1680156101fe5780820380516001836020036101000a031916815260200191505b509250505060405180910390f35b34801561021857600080fd5b506102246004356106dc565b60408051600160a060020a039092168252519081900360200190f35b34801561024c57600080fd5b50610264600160a060020a03600435166024356106f7565b005b34801561027257600080fd5b5061027b6107ad565b60408051918252519081900360200190f35b34801561029957600080fd5b506102a26107b3565b604080517bffffffffffffffffffffffffffffffffffffffffffffffffffffffff199092168252519081900360200190f35b3480156102e057600080fd5b50610264600160a060020a03600435811690602435166044356107d7565b34801561030a57600080fd5b5061027b600160a060020a036004351660243561087c565b34801561032e57600080fd5b506101976004356108c9565b34801561034657600080fd5b50610264600160a060020a036004358116906024351660443561096a565b34801561037057600080fd5b506040805160206004803580820135601f810184900484028501840190955284845261026494369492936024939284019190819084018382808284375050604080516020601f89358b018035918201839004830284018301909452808352979a9998810197919650918201945092508291508401838280828437509497506109a29650505050505050565b34801561040757600080fd5b5061016e600435610a3c565b34801561041f57600080fd5b5061027b600435610a59565b34801561043757600080fd5b50610197600435610a8e565b34801561044f57600080fd5b50610224600435610b53565b34801561046757600080fd5b5061027b600160a060020a0360043516610b7d565b34801561048857600080fd5b5061027b610bb0565b34801561049d57600080fd5b50610197610bb6565b3480156104b257600080fd5b50610264600160a060020a03600435166024351515610c17565b3480156104d857600080fd5b506040805160206004803580820135601f810184900484028501840190955284845261026494369492936024939284019190819084018382808284375050604080516020601f89358b018035918201839004830284018301909452808352979a999881019791965091820194509250829150840183828082843750949750610c9b9650505050505050565b34801561056f57600080fd5b50604080516020601f60643560048181013592830184900484028501840190955281845261026494600160a060020a038135811695602480359092169560443595369560849401918190840183828082843750949750610d8a9650505050505050565b3480156105de57600080fd5b50610197600435610dc2565b3480156105f657600080fd5b5061016e600160a060020a0360043581169060243516610e40565b7bffffffffffffffffffffffffffffffffffffffffffffffffffffffff191660009081526020819052604090205460ff1690565b60058054604080516020601f60026000196101006001881615020190951694909404938401819004810282018101909252828152606093909290918301828280156106d15780601f106106a6576101008083540402835291602001916106d1565b820191906000526020600020905b8154815290600101906020018083116106b457829003601f168201915b505050505090505b90565b600090815260026020526040902054600160a060020a031690565b600061070282610b53565b9050600160a060020a03838116908216141561071d57600080fd5b33600160a060020a038216148061073957506107398133610e40565b151561074457600080fd5b600082815260026020526040808220805473ffffffffffffffffffffffffffffffffffffffff1916600160a060020a0387811691821790925591518593918516917f8c5be1e5ebec7d5bd14f71427d1e84f3dd0314c0f7b2291e5b200ac8c7c3b92591a4505050565b60095490565b7f01ffc9a70000000000000000000000000000000000000000000000000000000081565b806107e23382610e6e565b15156107ed57600080fd5b600160a060020a038416151561080257600080fd5b600160a060020a038316151561081757600080fd5b6108218483610ecd565b61082b8483610f3e565b6108358383611077565b8183600160a060020a031685600160a060020a03167fddf252ad1be2c89b69c2b068fc378daa952ba7f163c4a11628f55a4df523b3ef60405160405180910390a450505050565b600061088783610b7d565b821061089257600080fd5b600160a060020a03831660009081526007602052604090208054839081106108b657fe5b9060005260206000200154905092915050565b6000818152600f602090815260409182902080548351601f600260001961010060018616150201909316929092049182018490048402810184019094528084526060939283018282801561095e5780601f106109335761010080835404028352916020019161095e565b820191906000526020600020905b81548152906001019060200180831161094157829003601f168201915b50505050509050919050565b806109753382610e6e565b151561098057600080fd5b61099c8484846020604051908101604052806000815250610d8a565b50505050565b33600090815260106020908152604090912083516109c29285019061146c565b50806011836040518082805190602001908083835b602083106109f65780518252601f1990920191602091820191016109d7565b51815160209384036101000a60001901801990921691161790529201948552506040519384900381019093208451610a37959194919091019250905061146c565b505050565b600090815260016020526040902054600160a060020a0316151590565b6000610a636107ad565b8210610a6e57600080fd5b6009805483908110610a7c57fe5b90600052602060002001549050919050565b60606011610a9b836108c9565b6040518082805190602001908083835b60208310610aca5780518252601f199092019160209182019101610aab565b518151600019602094850361010090810a820192831692199390931691909117909252949092019687526040805197889003820188208054601f600260018316159098029095011695909504928301829004820288018201905281875292945092505083018282801561095e5780601f106109335761010080835404028352916020019161095e565b600081815260016020526040812054600160a060020a0316801515610b7757600080fd5b92915050565b6000600160a060020a0382161515610b9457600080fd5b50600160a060020a031660009081526003602052604090205490565b600e5481565b60068054604080516020601f60026000196101006001881615020190951694909404938401819004810282018101909252828152606093909290918301828280156106d15780601f106106a6576101008083540402835291602001916106d1565b600160a060020a038216331415610c2d57600080fd5b336000818152600460209081526040808320600160a060020a03871680855290835292819020805460ff1916861515908117909155815190815290519293927f17307eab39ab6107e8899845ad3d59bd9653f200f220920489ca2b5937696c31929181900390910190a35050565b601354604080517f59647984000000000000000000000000000000000000000000000000000000008152336004820152600060248201819052915191928592600160a060020a0390911691635964798491604480830192602092919082900301818887803b158015610d0c57600080fd5b505af1158015610d20573d6000803e3d6000fd5b505050506040513d6020811015610d3657600080fd5b50511515610d4357600080fd5b600e8054600181019091559150610d5a33836110c0565b610d64828461110f565b6000828152600f602090815260409091208551610d839287019061146c565b5050505050565b81610d953382610e6e565b1515610da057600080fd5b610dab8585856107d7565b610db785858585611142565b1515610d8357600080fd5b6060610dcd82610a3c565b1515610dd857600080fd5b6000828152600b602090815260409182902080548351601f60026000196101006001861615020190931692909204918201849004840281018401909452808452909183018282801561095e5780601f106109335761010080835404028352916020019161095e565b600160a060020a03918216600090815260046020908152604080832093909416825291909152205460ff1690565b600080610e7a83610b53565b905080600160a060020a031684600160a060020a03161480610eb5575083600160a060020a0316610eaa846106dc565b600160a060020a0316145b80610ec55750610ec58185610e40565b949350505050565b81600160a060020a0316610ee082610b53565b600160a060020a031614610ef357600080fd5b600081815260026020526040902054600160a060020a031615610f3a576000818152600260205260409020805473ffffffffffffffffffffffffffffffffffffffff191690555b5050565b6000806000610f4d85856112c4565b600084815260086020908152604080832054600160a060020a0389168452600790925290912054909350610f8890600163ffffffff61135a16565b600160a060020a038616600090815260076020526040902080549193509083908110610fb057fe5b90600052602060002001549050806007600087600160a060020a0316600160a060020a0316815260200190815260200160002084815481101515610ff057fe5b6000918252602080832090910192909255600160a060020a038716815260079091526040812080548490811061102257fe5b6000918252602080832090910192909255600160a060020a03871681526007909152604090208054906110599060001983016114ea565b50600093845260086020526040808520859055908452909220555050565b6000611083838361136c565b50600160a060020a039091166000908152600760209081526040808320805460018101825590845282842081018590559383526008909152902055565b6110ca82826113fc565b600980546000838152600a60205260408120829055600182018355919091527f6e1540171b6c0c960b71a7020d9f60077f6af931a8bbf590da0223dacf75c7af015550565b61111882610a3c565b151561112357600080fd5b6000828152600b602090815260409091208251610a379284019061146c565b60008061115785600160a060020a0316611457565b151561116657600191506112bb565b6040517f150b7a020000000000000000000000000000000000000000000000000000000081523360048201818152600160a060020a03898116602485015260448401889052608060648501908152875160848601528751918a169463150b7a0294938c938b938b93909160a490910190602085019080838360005b838110156111f95781810151838201526020016111e1565b50505050905090810190601f1680156112265780820380516001836020036101000a031916815260200191505b5095505050505050602060405180830381600087803b15801561124857600080fd5b505af115801561125c573d6000803e3d6000fd5b505050506040513d602081101561127257600080fd5b50517bffffffffffffffffffffffffffffffffffffffffffffffffffffffff1981167f150b7a020000000000000000000000000000000000000000000000000000000014925090505b50949350505050565b81600160a060020a03166112d782610b53565b600160a060020a0316146112ea57600080fd5b600160a060020a03821660009081526003602052604090205461131490600163ffffffff61135a16565b600160a060020a03909216600090815260036020908152604080832094909455918152600190915220805473ffffffffffffffffffffffffffffffffffffffff19169055565b60008282111561136657fe5b50900390565b600081815260016020526040902054600160a060020a03161561138e57600080fd5b6000818152600160208181526040808420805473ffffffffffffffffffffffffffffffffffffffff1916600160a060020a03881690811790915584526003909152909120546113dc9161145f565b600160a060020a0390921660009081526003602052604090209190915550565b600160a060020a038216151561141157600080fd5b61141b8282611077565b6040518190600160a060020a038416906000907fddf252ad1be2c89b69c2b068fc378daa952ba7f163c4a11628f55a4df523b3ef908290a45050565b6000903b1190565b81810182811015610b7757fe5b828054600181600116156101000203166002900490600052602060002090601f016020900481019282601f106114ad57805160ff19168380011785556114da565b828001600101855582156114da579182015b828111156114da5782518255916020019190600101906114bf565b506114e692915061150a565b5090565b815481835581811115610a3757600083815260209020610a379181019083015b6106d991905b808211156114e657600081556001016115105600a165627a7a723058200bfa482ed567f0cd0163c8b9dc1b004919072640eaacc8953f590671fb2225220029",
  "source": "pragma solidity 0.4.24;\r\n\r\nimport \"zeppelin-solidity/contracts/token/ERC721/ERC721Token.sol\";\r\nimport \"zeppelin-solidity/contracts/math/SafeMath.sol\";\r\nimport \"./lib/strings.sol\";\r\n// References: https://github.com/OpenZeppelin/openzeppelin-solidity/blob/v1.8.0/contracts/token/ERC721/ERC721Token.sol\r\n\r\ncontract DMB is ERC721Token (\"DecentralizeMessagingBoard\", \"DMB\") {\r\n    using strings for *;\r\n    using SafeMath for uint256;\r\n\r\n    // These two are included in the open lib\r\n    string internal name_ = \"DecentralizeMessagingBoard\";\r\n    string internal symbol_ = \"DMB\";\r\n\r\n    uint256 public erc721TokenId = 1; // default tokenId for helping people to create unique id\r\n    mapping (uint256 => string) postIdTenantIdMap; //a map to trace postId => tenantId\r\n    //hack mapping for address to tenantId\r\n    mapping (address => string) addrTenantId;\r\n    mapping (string => string) tenantIdAffiliation;\r\n    address  identityContract = 0x2F573d44cdE240d3938f0304509f97528aCcace5;\r\n    IdentityStore idstore;\r\n    modifier isValid (string _tenantId) {\r\n        require(idstore.isValid(msg.sender, 0)); //calling isValid  functino from Authenticator app\r\n        _;\r\n    }\r\n\r\n    // constructor\r\n    function DMB() public { \r\n        //Do some initialization\r\n        idstore = IdentityStore(identityContract);\r\n    }\r\n\r\n    // Function to issue certificate to a receiver\r\n    // _uri  : The string for the content of the post\r\n    // names  : The names of the signers (is ';' delimetered string)\r\n    // tenantId : The tenantId you want to post as..\r\n    function createNewPost(string _tenantId, string _uri) isValid(_tenantId) public {\r\n        //New generated token Id\r\n        //require(idstore.isValid(_tenantId, msg.sender, 0)); //check tenantId as well\r\n        uint256 newTokenId = erc721TokenId++;\r\n        super._mint(msg.sender, newTokenId);\r\n        super._setTokenURI(newTokenId, _uri);\r\n        //uint256 tenantId = addrTenantId[msg.sender]; //get it from the IdentityContract\r\n        //require(tenantId > 0);\r\n        postIdTenantIdMap[newTokenId] = _tenantId;        \r\n    }\r\n\r\n    //hack function to set the tenantId you want for the post\r\n    //and the tenantId affiliation\r\n    function setTenantId(string _tenantId, string affiliation) public{\r\n        addrTenantId[msg.sender] = _tenantId;\r\n        //idstore.setTenant(keccak256(_tenantId), msg.sender, 0, _tenantId);\r\n        tenantIdAffiliation[_tenantId] = affiliation;\r\n    }\r\n\r\n    function getTokenTenantId(uint256 tokenId) public view returns(string){\r\n        return postIdTenantIdMap[tokenId];\r\n    }\r\n\r\n    function getPostAuthorAffiliation(uint256 tokenId) public view returns(string){\r\n        return tenantIdAffiliation[getTokenTenantId(tokenId)];\r\n    }\r\n}\r\n/**\r\n * @title Ownable\r\n * @dev The Ownable contract has an owner address, and provides basic authorization control\r\n * functions, this simplifies the implementation of \"user permissions\".\r\n */\r\ncontract Ownable {\r\n  address public owner;\r\n\r\n\r\n  event OwnershipRenounced(address indexed previousOwner);\r\n  event OwnershipTransferred(\r\n    address indexed previousOwner,\r\n    address indexed newOwner\r\n  );\r\n\r\n\r\n  /**\r\n   * @dev The Ownable constructor sets the original `owner` of the contract to the sender\r\n   * account.\r\n   */\r\n  constructor() public {\r\n    owner = msg.sender;\r\n  }\r\n\r\n  /**\r\n   * @dev Throws if called by any account other than the owner.\r\n   */\r\n  modifier onlyOwner() {\r\n    require(msg.sender == owner);\r\n    _;\r\n  }\r\n\r\n  /**\r\n   * @dev Allows the current owner to relinquish control of the contract.\r\n   * @notice Renouncing to ownership will leave the contract without an owner.\r\n   * It will not be possible to call the functions with the `onlyOwner`\r\n   * modifier anymore.\r\n   */\r\n  function renounceOwnership() public onlyOwner {\r\n    emit OwnershipRenounced(owner);\r\n    owner = address(0);\r\n  }\r\n\r\n  /**\r\n   * @dev Allows the current owner to transfer control of the contract to a newOwner.\r\n   * @param _newOwner The address to transfer ownership to.\r\n   */\r\n  function transferOwnership(address _newOwner) public onlyOwner {\r\n    _transferOwnership(_newOwner);\r\n  }\r\n\r\n  /**\r\n   * @dev Transfers control of the contract to a newOwner.\r\n   * @param _newOwner The address to transfer ownership to.\r\n   */\r\n  function _transferOwnership(address _newOwner) internal {\r\n    require(_newOwner != address(0));\r\n    emit OwnershipTransferred(owner, _newOwner);\r\n    owner = _newOwner;\r\n  }\r\n}\r\n\r\n\r\ncontract IdentityStore is Ownable {\r\n  \r\n    struct User {\r\n        bytes32 tenantHash;\r\n        uint256 timestamp;\r\n        string tenantId;\r\n    }\r\n\r\n    mapping(address => User) private tenantAddressMapping;\r\n    mapping(bytes32 => address) private tenantHashMapping; \r\n\r\n    function setTenant(\r\n        bytes32 _tenantHash,\r\n        address _userAddress,\r\n        uint256 _timestamp,\r\n        string _tenantId) onlyOwner public {\r\n\r\n        // Completely new user\r\n        if (!userAddressExists(_userAddress) && !userTenantHashExists(_tenantHash)) {\r\n            \r\n            User memory newUser = User(_tenantHash, _timestamp, _tenantId);\r\n            tenantAddressMapping[_userAddress] = newUser;\r\n            tenantHashMapping[_tenantHash] = _userAddress;\r\n            return;\r\n        }\r\n\r\n        // Update user hash.\r\n        if (userAddressExists(_userAddress) && !userTenantHashExists(_tenantHash)) {\r\n            \r\n            bytes32 oldHash = tenantAddressMapping[_userAddress].tenantHash;\r\n            updateHash(oldHash, _tenantHash, _timestamp);\r\n            return;\r\n        }\r\n        \r\n        // Update user address.\r\n        if (userTenantHashExists(_tenantHash) && !userAddressExists(_userAddress)) {\r\n            address oldAddress = tenantHashMapping[_tenantHash];\r\n            updateAddress(oldAddress, _userAddress);\r\n            return;\r\n        }\r\n        \r\n        // Update timestamp\r\n        if (userTenantHashExists(_tenantHash) && userAddressExists(_userAddress)) {\r\n            updateTimestamp(_tenantHash, _timestamp);\r\n            return;\r\n        }\r\n    }\r\n\r\n    function isValid(\r\n        string _tenantId, \r\n        address _userAddress,\r\n        uint256 _minTimestamp) view public returns(bool) {\r\n\r\n        // check valid address\r\n        if(!userAddressExists(_userAddress)) {\r\n            return false;\r\n        }\r\n\r\n        User memory currentUser = tenantAddressMapping[_userAddress];\r\n\r\n        // check valid tenant id\r\n        if(keccak256(currentUser.tenantId) != keccak256(_tenantId)) {\r\n            return false;\r\n        }\r\n        \r\n        // check minimum timestamp\r\n        if(currentUser.timestamp < _minTimestamp) {\r\n            return false;\r\n        }\r\n\r\n        return true;\r\n    }\r\n\r\n    function isValid(address _userAddress, uint256 _minTimestamp) view public returns(bool) {\r\n\r\n        // check valid address\r\n        if(!userAddressExists(_userAddress)) {\r\n            return false;\r\n        }\r\n\r\n        User memory currentUser = tenantAddressMapping[_userAddress];\r\n\r\n        // check minimum timestamp\r\n        if(currentUser.timestamp < _minTimestamp) {\r\n            return false;\r\n        }\r\n\r\n        return true;\r\n    }\r\n\r\n    function updateHash(\r\n        bytes32 _oldHash, \r\n        bytes32 _newHash, \r\n        uint256 _timestamp) internal {\r\n\r\n        require(userTenantHashExists(_oldHash), \"Old hash does not exist.\");\r\n        require(!userTenantHashExists(_newHash), \"New hash is already registered.\");\r\n        address currentAddress = tenantHashMapping[_oldHash];\r\n        User memory oldUserInfo = tenantAddressMapping[currentAddress];\r\n        User memory newUserInfo = User(_newHash, _timestamp, oldUserInfo.tenantId);\r\n\r\n        // update address mapping to user\r\n        tenantAddressMapping[currentAddress] = newUserInfo;\r\n\r\n        // delete old hash mapping to address\r\n        delete tenantHashMapping[_oldHash];\r\n\r\n        // add new hash mapping to address\r\n        tenantHashMapping[_newHash] = currentAddress;\r\n    }\r\n\r\n    function updateAddress(address oldUserAddress, address newUserAddress) onlyOwner internal {\r\n        User memory existingUser = tenantAddressMapping[oldUserAddress];\r\n        \r\n        require(!userAddressExists(newUserAddress), \"There's already an account tied to this address\");\r\n        require(userAddressExists(oldUserAddress), \"There's no account tied to the address origin\");\r\n\r\n        tenantHashMapping[existingUser.tenantHash] = newUserAddress;\r\n        tenantAddressMapping[newUserAddress] = existingUser;\r\n        delete tenantAddressMapping[oldUserAddress];\r\n    }\r\n\r\n    function updateTimestamp(bytes32 _tenantHash, uint256 _timestamp) onlyOwner internal {\r\n        tenantAddressMapping[tenantHashMapping[_tenantHash]].timestamp = _timestamp;\r\n    }\r\n\r\n    function userAddressExists(address userAddress) view internal returns(bool) {       \r\n        if(tenantAddressMapping[userAddress].tenantHash == 0) {\r\n            return false;\r\n        }\r\n        return true;\r\n    }\r\n\r\n    function userTenantHashExists(bytes32 tenantHash) view internal returns(bool){\r\n        // pray it be who can find the 0X Address\r\n        if(tenantHashMapping[tenantHash] == 0) {\r\n            return false;\r\n        }\r\n        return true;\r\n    }\r\n}",
  "sourcePath": "C:\\workspace\\MicrosoftHackathon\\Decentralize-Messaging-Board\\contracts\\DMB.sol",
  "compiler": {
    "name": "solc",
    "version": "0.4.24+commit.e67f0147.Emscripten.clang"
  },
  "schemaVersion": "2.0.1",
  "updatedAt": "2018-07-25T21:21:03.815Z"
}