{
  "contractName": "IdentityStore",
  "abi": [
    {
      "constant": false,
      "inputs": [],
      "name": "renounceOwnership",
      "outputs": [],
      "payable": false,
      "stateMutability": "nonpayable",
      "type": "function"
    },
    {
      "constant": true,
      "inputs": [],
      "name": "owner",
      "outputs": [
        {
          "name": "",
          "type": "address"
        }
      ],
      "payable": false,
      "stateMutability": "view",
      "type": "function"
    },
    {
      "constant": false,
      "inputs": [
        {
          "name": "_newOwner",
          "type": "address"
        }
      ],
      "name": "transferOwnership",
      "outputs": [],
      "payable": false,
      "stateMutability": "nonpayable",
      "type": "function"
    },
    {
      "anonymous": false,
      "inputs": [
        {
          "indexed": true,
          "name": "previousOwner",
          "type": "address"
        }
      ],
      "name": "OwnershipRenounced",
      "type": "event"
    },
    {
      "anonymous": false,
      "inputs": [
        {
          "indexed": true,
          "name": "previousOwner",
          "type": "address"
        },
        {
          "indexed": true,
          "name": "newOwner",
          "type": "address"
        }
      ],
      "name": "OwnershipTransferred",
      "type": "event"
    },
    {
      "constant": false,
      "inputs": [
        {
          "name": "_tenantHash",
          "type": "bytes32"
        },
        {
          "name": "_userAddress",
          "type": "address"
        },
        {
          "name": "_timestamp",
          "type": "uint256"
        },
        {
          "name": "_tenantId",
          "type": "string"
        }
      ],
      "name": "setTenant",
      "outputs": [],
      "payable": false,
      "stateMutability": "nonpayable",
      "type": "function"
    },
    {
      "constant": true,
      "inputs": [
        {
          "name": "_userAddress",
          "type": "address"
        },
        {
          "name": "_minTimestamp",
          "type": "uint256"
        }
      ],
      "name": "isValid",
      "outputs": [
        {
          "name": "",
          "type": "bool"
        }
      ],
      "payable": false,
      "stateMutability": "view",
      "type": "function"
    },
    {
      "constant": true,
      "inputs": [
        {
          "name": "_tenantId",
          "type": "string"
        },
        {
          "name": "_userAddress",
          "type": "address"
        },
        {
          "name": "_minTimestamp",
          "type": "uint256"
        }
      ],
      "name": "isValid",
      "outputs": [
        {
          "name": "",
          "type": "bool"
        }
      ],
      "payable": false,
      "stateMutability": "view",
      "type": "function"
    }
  ],
  "bytecode": "0x608060405260008054600160a060020a03191633179055610e8a806100256000396000f3006080604052600436106100775763ffffffff7c010000000000000000000000000000000000000000000000000000000060003504166348d7de63811461007c57806359647984146100ed578063715018a61461012557806377cfe1c11461013a5780638da5cb5b146101a4578063f2fde38b146101d5575b600080fd5b34801561008857600080fd5b50604080516020601f6064356004818101359283018490048402850184019095528184526100eb94803594600160a060020a0360248035919091169560443595369560849493019181908401838280828437509497506101f69650505050505050565b005b3480156100f957600080fd5b50610111600160a060020a036004351660243561038d565b604080519115158252519081900360200190f35b34801561013157600080fd5b506100eb610496565b34801561014657600080fd5b506040805160206004803580820135601f810184900484028501840190955284845261011194369492936024939284019190819084018382808284375094975050508335600160a060020a0316945050506020909101359050610502565b3480156101b057600080fd5b506101b96106da565b60408051600160a060020a039092168252519081900360200190f35b3480156101e157600080fd5b506100eb600160a060020a03600435166106e9565b6101fe610d64565b600080548190600160a060020a0316331461021857600080fd5b6102218661070c565b15801561023457506102328761073c565b155b156102ce57604080516060810182528881526020808201888152828401888152600160a060020a038b166000908152600180855295902084518155915194820194909455925180519296508693926102929260028501920190610d83565b5050506000878152600260205260409020805473ffffffffffffffffffffffffffffffffffffffff1916600160a060020a038816179055610384565b6102d78661070c565b80156102e957506102e78761073c565b155b1561031957600160a060020a0386166000908152600160205260409020549150610314828887610762565b610384565b6103228761073c565b801561033457506103328661070c565b155b1561035c5750600086815260026020526040902054600160a060020a031661031481876109e0565b6103658761073c565b801561037557506103758661070c565b15610384576103148786610ca4565b50505050505050565b6000610397610d64565b6103a08461070c565b15156103af576000915061048f565b600160a060020a03841660009081526001602081815260409283902083516060810185528154815281840154818401526002808301805487516000199782161561010002979097011691909104601f81018590048502860185018752808652919592949286019390919083018282801561046a5780601f1061043f5761010080835404028352916020019161046a565b820191906000526020600020905b81548152906001019060200180831161044d57829003601f168201915b5050505050815250509050828160200151101561048a576000915061048f565b600191505b5092915050565b600054600160a060020a031633146104ad57600080fd5b60008054604051600160a060020a03909116917ff8df31144d9c2f0f6b59d69b8b98abd5459d07f2742c4df920b25aae33c6482091a26000805473ffffffffffffffffffffffffffffffffffffffff19169055565b600061050c610d64565b6105158461070c565b151561052457600091506106d2565b600160a060020a03841660009081526001602081815260409283902083516060810185528154815281840154818401526002808301805487516000199782161561010002979097011691909104601f8101859004850286018501875280865291959294928601939091908301828280156105df5780601f106105b4576101008083540402835291602001916105df565b820191906000526020600020905b8154815290600101906020018083116105c257829003601f168201915b5050505050815250509050846040518082805190602001908083835b6020831061061a5780518252601f1990920191602091820191016105fb565b51815160001960209485036101000a019081169019919091161790526040805194909201849003842091870151805192965094508392508401908083835b602083106106775780518252601f199092019160209182019101610658565b6001836020036101000a0380198251168184511680821785525050505050509050019150506040518091039020600019161415156106b857600091506106d2565b82816020015110156106cd57600091506106d2565b600191505b509392505050565b600054600160a060020a031681565b600054600160a060020a0316331461070057600080fd5b61070981610ce7565b50565b600160a060020a038116600090815260016020526040812054151561073357506000610737565b5060015b919050565b600081815260026020526040812054600160a060020a0316151561073357506000610737565b600061076c610d64565b610774610d64565b61077d8661073c565b15156107ea57604080517f08c379a000000000000000000000000000000000000000000000000000000000815260206004820152601860248201527f4f6c64206861736820646f6573206e6f742065786973742e0000000000000000604482015290519081900360640190fd5b6107f38561073c565b1561085f57604080517f08c379a000000000000000000000000000000000000000000000000000000000815260206004820152601f60248201527f4e6577206861736820697320616c726561647920726567697374657265642e00604482015290519081900360640190fd5b600086815260026020818152604080842054600160a060020a0316808552600180845294829020825160608101845281548152818701548186015281860180548551601f998216156101000260001901909116979097049788018690048602870186018552878752929950959094928601938301828280156109225780601f106108f757610100808354040283529160200191610922565b820191906000526020600020905b81548152906001019060200180831161090557829003601f168201915b50505091909252505060408051606081018252888152602080820189815283860151838501908152600160a060020a038a16600090815260018085529590208451815591519482019490945592518051959750919550859492935061098f92600285019290910190610d83565b5050506000958652505060026020526040808520805473ffffffffffffffffffffffffffffffffffffffff199081169091559385529093208054909216600160a060020a0390931692909217905550565b6109e8610d64565b600054600160a060020a031633146109ff57600080fd5b600160a060020a03831660009081526001602081815260409283902083516060810185528154815281840154818401526002808301805487516000199782161561010002979097011691909104601f810185900485028601850187528086529195929492860193909190830182828015610aba5780601f10610a8f57610100808354040283529160200191610aba565b820191906000526020600020905b815481529060010190602001808311610a9d57829003601f168201915b5050505050815250509050610ace8261070c565b15610b6057604080517f08c379a000000000000000000000000000000000000000000000000000000000815260206004820152602f60248201527f5468657265277320616c726561647920616e206163636f756e7420746965642060448201527f746f207468697320616464726573730000000000000000000000000000000000606482015290519081900360840190fd5b610b698361070c565b1515610bfc57604080517f08c379a000000000000000000000000000000000000000000000000000000000815260206004820152602d60248201527f54686572652773206e6f206163636f756e74207469656420746f20746865206160448201527f646472657373206f726967696e00000000000000000000000000000000000000606482015290519081900360840190fd5b80516000908152600260208181526040808420805473ffffffffffffffffffffffffffffffffffffffff1916600160a060020a03881690811790915584526001808352938190208551815582860151948101949094558401518051859493610c6993908501920190610d83565b505050600160a060020a0383166000908152600160208190526040822082815590810182905590610c9d6002830182610e01565b5050505050565b600054600160a060020a03163314610cbb57600080fd5b600091825260026020908152604080842054600160a060020a0316845260019182905290922090910155565b600160a060020a0381161515610cfc57600080fd5b60008054604051600160a060020a03808516939216917f8be0079c531659141344cd1fd0a4f28419497f9722a3daafe3b4186f6b6457e091a36000805473ffffffffffffffffffffffffffffffffffffffff1916600160a060020a0392909216919091179055565b6040805160608181018352600080835260208301529181019190915290565b828054600181600116156101000203166002900490600052602060002090601f016020900481019282601f10610dc457805160ff1916838001178555610df1565b82800160010185558215610df1579182015b82811115610df1578251825591602001919060010190610dd6565b50610dfd929150610e41565b5090565b50805460018160011615610100020316600290046000825580601f10610e275750610709565b601f01602090049060005260206000209081019061070991905b610e5b91905b80821115610dfd5760008155600101610e47565b905600a165627a7a723058209863356a82f2b22cc5c989aebf6155743825364d9f222e870679edf56d30a89e0029",
  "source": "pragma solidity 0.4.24;\r\n\r\nimport \"zeppelin-solidity/contracts/token/ERC721/ERC721Token.sol\";\r\nimport \"zeppelin-solidity/contracts/math/SafeMath.sol\";\r\nimport \"./lib/strings.sol\";\r\n// References: https://github.com/OpenZeppelin/openzeppelin-solidity/blob/v1.8.0/contracts/token/ERC721/ERC721Token.sol\r\n\r\ncontract DMB is ERC721Token (\"DecentralizeMessagingBoard\", \"DMB\") {\r\n    using strings for *;\r\n    using SafeMath for uint256;\r\n\r\n    // These two are included in the open lib\r\n    string internal name_ = \"DecentralizeMessagingBoard\";\r\n    string internal symbol_ = \"DMB\";\r\n\r\n    uint256 public erc721TokenId = 1; // default tokenId for helping people to create unique id\r\n    mapping (uint256 => string) postIdTenantIdMap; //a map to trace postId => tenantId\r\n    //hack mapping for address to tenantId\r\n    mapping (address => string) addrTenantId;\r\n    mapping (string => string) tenantIdAffiliation;\r\n    address  identityContract = 0x2F573d44cdE240d3938f0304509f97528aCcace5;\r\n    IdentityStore idstore;\r\n    modifier isValid (string _tenantId) {\r\n        require(idstore.isValid(msg.sender, 0)); //calling isValid  functino from Authenticator app\r\n        _;\r\n    }\r\n\r\n    // constructor\r\n    function DMB() public { \r\n        //Do some initialization\r\n        idstore = IdentityStore(identityContract);\r\n    }\r\n\r\n    // Function to issue certificate to a receiver\r\n    // _uri  : The string for the content of the post\r\n    // names  : The names of the signers (is ';' delimetered string)\r\n    // tenantId : The tenantId you want to post as..\r\n    function createNewPost(string _tenantId, string _uri) isValid(_tenantId) public {\r\n        //New generated token Id\r\n        //require(idstore.isValid(_tenantId, msg.sender, 0)); //check tenantId as well\r\n        uint256 newTokenId = erc721TokenId++;\r\n        super._mint(msg.sender, newTokenId);\r\n        super._setTokenURI(newTokenId, _uri);\r\n        //uint256 tenantId = addrTenantId[msg.sender]; //get it from the IdentityContract\r\n        //require(tenantId > 0);\r\n        postIdTenantIdMap[newTokenId] = _tenantId;        \r\n    }\r\n\r\n    //hack function to set the tenantId you want for the post\r\n    //and the tenantId affiliation\r\n    function setTenantId(string _tenantId, string affiliation) public{\r\n        addrTenantId[msg.sender] = _tenantId;\r\n        //idstore.setTenant(keccak256(_tenantId), msg.sender, 0, _tenantId);\r\n        tenantIdAffiliation[_tenantId] = affiliation;\r\n    }\r\n\r\n    function getTokenTenantId(uint256 tokenId) public view returns(string){\r\n        return postIdTenantIdMap[tokenId];\r\n    }\r\n\r\n    function getPostAuthorAffiliation(uint256 tokenId) public view returns(string){\r\n        return tenantIdAffiliation[getTokenTenantId(tokenId)];\r\n    }\r\n}\r\n/**\r\n * @title Ownable\r\n * @dev The Ownable contract has an owner address, and provides basic authorization control\r\n * functions, this simplifies the implementation of \"user permissions\".\r\n */\r\ncontract Ownable {\r\n  address public owner;\r\n\r\n\r\n  event OwnershipRenounced(address indexed previousOwner);\r\n  event OwnershipTransferred(\r\n    address indexed previousOwner,\r\n    address indexed newOwner\r\n  );\r\n\r\n\r\n  /**\r\n   * @dev The Ownable constructor sets the original `owner` of the contract to the sender\r\n   * account.\r\n   */\r\n  constructor() public {\r\n    owner = msg.sender;\r\n  }\r\n\r\n  /**\r\n   * @dev Throws if called by any account other than the owner.\r\n   */\r\n  modifier onlyOwner() {\r\n    require(msg.sender == owner);\r\n    _;\r\n  }\r\n\r\n  /**\r\n   * @dev Allows the current owner to relinquish control of the contract.\r\n   * @notice Renouncing to ownership will leave the contract without an owner.\r\n   * It will not be possible to call the functions with the `onlyOwner`\r\n   * modifier anymore.\r\n   */\r\n  function renounceOwnership() public onlyOwner {\r\n    emit OwnershipRenounced(owner);\r\n    owner = address(0);\r\n  }\r\n\r\n  /**\r\n   * @dev Allows the current owner to transfer control of the contract to a newOwner.\r\n   * @param _newOwner The address to transfer ownership to.\r\n   */\r\n  function transferOwnership(address _newOwner) public onlyOwner {\r\n    _transferOwnership(_newOwner);\r\n  }\r\n\r\n  /**\r\n   * @dev Transfers control of the contract to a newOwner.\r\n   * @param _newOwner The address to transfer ownership to.\r\n   */\r\n  function _transferOwnership(address _newOwner) internal {\r\n    require(_newOwner != address(0));\r\n    emit OwnershipTransferred(owner, _newOwner);\r\n    owner = _newOwner;\r\n  }\r\n}\r\n\r\n\r\ncontract IdentityStore is Ownable {\r\n  \r\n    struct User {\r\n        bytes32 tenantHash;\r\n        uint256 timestamp;\r\n        string tenantId;\r\n    }\r\n\r\n    mapping(address => User) private tenantAddressMapping;\r\n    mapping(bytes32 => address) private tenantHashMapping; \r\n\r\n    function setTenant(\r\n        bytes32 _tenantHash,\r\n        address _userAddress,\r\n        uint256 _timestamp,\r\n        string _tenantId) onlyOwner public {\r\n\r\n        // Completely new user\r\n        if (!userAddressExists(_userAddress) && !userTenantHashExists(_tenantHash)) {\r\n            \r\n            User memory newUser = User(_tenantHash, _timestamp, _tenantId);\r\n            tenantAddressMapping[_userAddress] = newUser;\r\n            tenantHashMapping[_tenantHash] = _userAddress;\r\n            return;\r\n        }\r\n\r\n        // Update user hash.\r\n        if (userAddressExists(_userAddress) && !userTenantHashExists(_tenantHash)) {\r\n            \r\n            bytes32 oldHash = tenantAddressMapping[_userAddress].tenantHash;\r\n            updateHash(oldHash, _tenantHash, _timestamp);\r\n            return;\r\n        }\r\n        \r\n        // Update user address.\r\n        if (userTenantHashExists(_tenantHash) && !userAddressExists(_userAddress)) {\r\n            address oldAddress = tenantHashMapping[_tenantHash];\r\n            updateAddress(oldAddress, _userAddress);\r\n            return;\r\n        }\r\n        \r\n        // Update timestamp\r\n        if (userTenantHashExists(_tenantHash) && userAddressExists(_userAddress)) {\r\n            updateTimestamp(_tenantHash, _timestamp);\r\n            return;\r\n        }\r\n    }\r\n\r\n    function isValid(\r\n        string _tenantId, \r\n        address _userAddress,\r\n        uint256 _minTimestamp) view public returns(bool) {\r\n\r\n        // check valid address\r\n        if(!userAddressExists(_userAddress)) {\r\n            return false;\r\n        }\r\n\r\n        User memory currentUser = tenantAddressMapping[_userAddress];\r\n\r\n        // check valid tenant id\r\n        if(keccak256(currentUser.tenantId) != keccak256(_tenantId)) {\r\n            return false;\r\n        }\r\n        \r\n        // check minimum timestamp\r\n        if(currentUser.timestamp < _minTimestamp) {\r\n            return false;\r\n        }\r\n\r\n        return true;\r\n    }\r\n\r\n    function isValid(address _userAddress, uint256 _minTimestamp) view public returns(bool) {\r\n\r\n        // check valid address\r\n        if(!userAddressExists(_userAddress)) {\r\n            return false;\r\n        }\r\n\r\n        User memory currentUser = tenantAddressMapping[_userAddress];\r\n\r\n        // check minimum timestamp\r\n        if(currentUser.timestamp < _minTimestamp) {\r\n            return false;\r\n        }\r\n\r\n        return true;\r\n    }\r\n\r\n    function updateHash(\r\n        bytes32 _oldHash, \r\n        bytes32 _newHash, \r\n        uint256 _timestamp) internal {\r\n\r\n        require(userTenantHashExists(_oldHash), \"Old hash does not exist.\");\r\n        require(!userTenantHashExists(_newHash), \"New hash is already registered.\");\r\n        address currentAddress = tenantHashMapping[_oldHash];\r\n        User memory oldUserInfo = tenantAddressMapping[currentAddress];\r\n        User memory newUserInfo = User(_newHash, _timestamp, oldUserInfo.tenantId);\r\n\r\n        // update address mapping to user\r\n        tenantAddressMapping[currentAddress] = newUserInfo;\r\n\r\n        // delete old hash mapping to address\r\n        delete tenantHashMapping[_oldHash];\r\n\r\n        // add new hash mapping to address\r\n        tenantHashMapping[_newHash] = currentAddress;\r\n    }\r\n\r\n    function updateAddress(address oldUserAddress, address newUserAddress) onlyOwner internal {\r\n        User memory existingUser = tenantAddressMapping[oldUserAddress];\r\n        \r\n        require(!userAddressExists(newUserAddress), \"There's already an account tied to this address\");\r\n        require(userAddressExists(oldUserAddress), \"There's no account tied to the address origin\");\r\n\r\n        tenantHashMapping[existingUser.tenantHash] = newUserAddress;\r\n        tenantAddressMapping[newUserAddress] = existingUser;\r\n        delete tenantAddressMapping[oldUserAddress];\r\n    }\r\n\r\n    function updateTimestamp(bytes32 _tenantHash, uint256 _timestamp) onlyOwner internal {\r\n        tenantAddressMapping[tenantHashMapping[_tenantHash]].timestamp = _timestamp;\r\n    }\r\n\r\n    function userAddressExists(address userAddress) view internal returns(bool) {       \r\n        if(tenantAddressMapping[userAddress].tenantHash == 0) {\r\n            return false;\r\n        }\r\n        return true;\r\n    }\r\n\r\n    function userTenantHashExists(bytes32 tenantHash) view internal returns(bool){\r\n        // pray it be who can find the 0X Address\r\n        if(tenantHashMapping[tenantHash] == 0) {\r\n            return false;\r\n        }\r\n        return true;\r\n    }\r\n}",
  "sourcePath": "C:\\workspace\\MicrosoftHackathon\\Decentralize-Messaging-Board\\contracts\\DMB.sol",
  "compiler": {
    "name": "solc",
    "version": "0.4.24+commit.e67f0147.Emscripten.clang"
  },
  "schemaVersion": "2.0.1",
  "updatedAt": "2018-07-25T21:17:41.638Z"
}