{
  "contractName": "IdentityStore",
  "abi": [
    {
      "constant": false,
      "inputs": [],
      "name": "renounceOwnership",
      "outputs": [],
      "payable": false,
      "stateMutability": "nonpayable",
      "type": "function"
    },
    {
      "constant": true,
      "inputs": [],
      "name": "owner",
      "outputs": [
        {
          "name": "",
          "type": "address"
        }
      ],
      "payable": false,
      "stateMutability": "view",
      "type": "function"
    },
    {
      "constant": false,
      "inputs": [
        {
          "name": "_newOwner",
          "type": "address"
        }
      ],
      "name": "transferOwnership",
      "outputs": [],
      "payable": false,
      "stateMutability": "nonpayable",
      "type": "function"
    },
    {
      "anonymous": false,
      "inputs": [
        {
          "indexed": true,
          "name": "previousOwner",
          "type": "address"
        }
      ],
      "name": "OwnershipRenounced",
      "type": "event"
    },
    {
      "anonymous": false,
      "inputs": [
        {
          "indexed": true,
          "name": "previousOwner",
          "type": "address"
        },
        {
          "indexed": true,
          "name": "newOwner",
          "type": "address"
        }
      ],
      "name": "OwnershipTransferred",
      "type": "event"
    },
    {
      "constant": false,
      "inputs": [
        {
          "name": "_tenantHash",
          "type": "bytes32"
        },
        {
          "name": "_userAddress",
          "type": "address"
        },
        {
          "name": "_timestamp",
          "type": "uint256"
        },
        {
          "name": "_tenantId",
          "type": "string"
        }
      ],
      "name": "setTenant",
      "outputs": [],
      "payable": false,
      "stateMutability": "nonpayable",
      "type": "function"
    },
    {
      "constant": true,
      "inputs": [
        {
          "name": "_tenantId",
          "type": "string"
        },
        {
          "name": "_userAddress",
          "type": "address"
        },
        {
          "name": "_minTimestamp",
          "type": "uint256"
        }
      ],
      "name": "isValidTenant",
      "outputs": [
        {
          "name": "",
          "type": "bool"
        }
      ],
      "payable": false,
      "stateMutability": "view",
      "type": "function"
    },
    {
      "constant": true,
      "inputs": [
        {
          "name": "_userAddress",
          "type": "address"
        },
        {
          "name": "_minTimestamp",
          "type": "uint256"
        }
      ],
      "name": "isValid",
      "outputs": [
        {
          "name": "",
          "type": "bool"
        }
      ],
      "payable": false,
      "stateMutability": "view",
      "type": "function"
    },
    {
      "constant": true,
      "inputs": [
        {
          "name": "_userAddress",
          "type": "address"
        }
      ],
      "name": "getUserTenantId",
      "outputs": [
        {
          "name": "",
          "type": "string"
        }
      ],
      "payable": false,
      "stateMutability": "view",
      "type": "function"
    }
  ],
  "bytecode": "0x608060405260008054600160a060020a03191633179055611072806100256000396000f3006080604052600436106100825763ffffffff7c010000000000000000000000000000000000000000000000000000000060003504166348d7de63811461008757806359647984146100f8578063715018a6146101305780638da5cb5b146101455780638ee833cc14610176578063aaa668aa146101e0578063f2fde38b14610276575b600080fd5b34801561009357600080fd5b50604080516020601f6064356004818101359283018490048402850184019095528184526100f694803594600160a060020a0360248035919091169560443595369560849493019181908401838280828437509497506102979650505050505050565b005b34801561010457600080fd5b5061011c600160a060020a036004351660243561042e565b604080519115158252519081900360200190f35b34801561013c57600080fd5b506100f6610537565b34801561015157600080fd5b5061015a6105a3565b60408051600160a060020a039092168252519081900360200190f35b34801561018257600080fd5b506040805160206004803580820135601f810184900484028501840190955284845261011c94369492936024939284019190819084018382808284375094975050508335600160a060020a03169450505060209091013590506105b2565b3480156101ec57600080fd5b50610201600160a060020a036004351661078a565b6040805160208082528351818301528351919283929083019185019080838360005b8381101561023b578181015183820152602001610223565b50505050905090810190601f1680156102685780820380516001836020036101000a031916815260200191505b509250505060405180910390f35b34801561028257600080fd5b506100f6600160a060020a03600435166108d2565b61029f610f4c565b600080548190600160a060020a031633146102b957600080fd5b6102c2866108f5565b1580156102d557506102d387610924565b155b1561036f57604080516060810182528881526020808201888152828401888152600160a060020a038b166000908152600180855295902084518155915194820194909455925180519296508693926103339260028501920190610f6b565b5050506000878152600260205260409020805473ffffffffffffffffffffffffffffffffffffffff1916600160a060020a038816179055610425565b610378866108f5565b801561038a575061038887610924565b155b156103ba57600160a060020a03861660009081526001602052604090205491506103b582888761094a565b610425565b6103c387610924565b80156103d557506103d3866108f5565b155b156103fd5750600086815260026020526040902054600160a060020a03166103b58187610bc8565b61040687610924565b80156104165750610416866108f5565b15610425576103b58786610e8c565b50505050505050565b6000610438610f4c565b610441846108f5565b15156104505760009150610530565b600160a060020a03841660009081526001602081815260409283902083516060810185528154815281840154818401526002808301805487516000199782161561010002979097011691909104601f81018590048502860185018752808652919592949286019390919083018282801561050b5780601f106104e05761010080835404028352916020019161050b565b820191906000526020600020905b8154815290600101906020018083116104ee57829003601f168201915b5050505050815250509050828160200151101561052b5760009150610530565b600191505b5092915050565b600054600160a060020a0316331461054e57600080fd5b60008054604051600160a060020a03909116917ff8df31144d9c2f0f6b59d69b8b98abd5459d07f2742c4df920b25aae33c6482091a26000805473ffffffffffffffffffffffffffffffffffffffff19169055565b600054600160a060020a031681565b60006105bc610f4c565b6105c5846108f5565b15156105d45760009150610782565b600160a060020a03841660009081526001602081815260409283902083516060810185528154815281840154818401526002808301805487516000199782161561010002979097011691909104601f81018590048502860185018752808652919592949286019390919083018282801561068f5780601f106106645761010080835404028352916020019161068f565b820191906000526020600020905b81548152906001019060200180831161067257829003601f168201915b5050505050815250509050846040518082805190602001908083835b602083106106ca5780518252601f1990920191602091820191016106ab565b51815160001960209485036101000a019081169019919091161790526040805194909201849003842091870151805192965094508392508401908083835b602083106107275780518252601f199092019160209182019101610708565b6001836020036101000a0380198251168184511680821785525050505050509050019150506040518091039020600019161415156107685760009150610782565b828160200151101561077d5760009150610782565b600191505b509392505050565b6060610795826108f5565b151561082857604080517f08c379a000000000000000000000000000000000000000000000000000000000815260206004820152602660248201527f54686572652773206e6f206163636f756e74207469656420746f20746865206160448201527f6464726573730000000000000000000000000000000000000000000000000000606482015290519081900360840190fd5b600160a060020a0382166000908152600160208181526040928390206002908101805485519481161561010002600019011691909104601f81018390048302840183019094528383529192908301828280156108c55780601f1061089a576101008083540402835291602001916108c5565b820191906000526020600020905b8154815290600101906020018083116108a857829003601f168201915b505050505090505b919050565b600054600160a060020a031633146108e957600080fd5b6108f281610ecf565b50565b600160a060020a038116600090815260016020526040812054151561091c575060006108cd565b506001919050565b600081815260026020526040812054600160a060020a0316151561091c575060006108cd565b6000610954610f4c565b61095c610f4c565b61096586610924565b15156109d257604080517f08c379a000000000000000000000000000000000000000000000000000000000815260206004820152601860248201527f4f6c64206861736820646f6573206e6f742065786973742e0000000000000000604482015290519081900360640190fd5b6109db85610924565b15610a4757604080517f08c379a000000000000000000000000000000000000000000000000000000000815260206004820152601f60248201527f4e6577206861736820697320616c726561647920726567697374657265642e00604482015290519081900360640190fd5b600086815260026020818152604080842054600160a060020a0316808552600180845294829020825160608101845281548152818701548186015281860180548551601f99821615610100026000190190911697909704978801869004860287018601855287875292995095909492860193830182828015610b0a5780601f10610adf57610100808354040283529160200191610b0a565b820191906000526020600020905b815481529060010190602001808311610aed57829003601f168201915b50505091909252505060408051606081018252888152602080820189815283860151838501908152600160a060020a038a166000908152600180855295902084518155915194820194909455925180519597509195508594929350610b7792600285019290910190610f6b565b5050506000958652505060026020526040808520805473ffffffffffffffffffffffffffffffffffffffff199081169091559385529093208054909216600160a060020a0390931692909217905550565b610bd0610f4c565b600054600160a060020a03163314610be757600080fd5b600160a060020a03831660009081526001602081815260409283902083516060810185528154815281840154818401526002808301805487516000199782161561010002979097011691909104601f810185900485028601850187528086529195929492860193909190830182828015610ca25780601f10610c7757610100808354040283529160200191610ca2565b820191906000526020600020905b815481529060010190602001808311610c8557829003601f168201915b5050505050815250509050610cb6826108f5565b15610d4857604080517f08c379a000000000000000000000000000000000000000000000000000000000815260206004820152602f60248201527f5468657265277320616c726561647920616e206163636f756e7420746965642060448201527f746f207468697320616464726573730000000000000000000000000000000000606482015290519081900360840190fd5b610d51836108f5565b1515610de457604080517f08c379a000000000000000000000000000000000000000000000000000000000815260206004820152602d60248201527f54686572652773206e6f206163636f756e74207469656420746f20746865206160448201527f646472657373206f726967696e00000000000000000000000000000000000000606482015290519081900360840190fd5b80516000908152600260208181526040808420805473ffffffffffffffffffffffffffffffffffffffff1916600160a060020a03881690811790915584526001808352938190208551815582860151948101949094558401518051859493610e5193908501920190610f6b565b505050600160a060020a0383166000908152600160208190526040822082815590810182905590610e856002830182610fe9565b5050505050565b600054600160a060020a03163314610ea357600080fd5b600091825260026020908152604080842054600160a060020a0316845260019182905290922090910155565b600160a060020a0381161515610ee457600080fd5b60008054604051600160a060020a03808516939216917f8be0079c531659141344cd1fd0a4f28419497f9722a3daafe3b4186f6b6457e091a36000805473ffffffffffffffffffffffffffffffffffffffff1916600160a060020a0392909216919091179055565b6040805160608181018352600080835260208301529181019190915290565b828054600181600116156101000203166002900490600052602060002090601f016020900481019282601f10610fac57805160ff1916838001178555610fd9565b82800160010185558215610fd9579182015b82811115610fd9578251825591602001919060010190610fbe565b50610fe5929150611029565b5090565b50805460018160011615610100020316600290046000825580601f1061100f57506108f2565b601f0160209004906000526020600020908101906108f291905b61104391905b80821115610fe5576000815560010161102f565b905600a165627a7a7230582040b73451cdbc368fb48c9fe230309fca61dced6d3acc5c8f3bc6ce1bf6a4442d0029",
  "source": "pragma solidity 0.4.24;\r\n\r\nimport \"zeppelin-solidity/contracts/token/ERC721/ERC721Token.sol\";\r\nimport \"zeppelin-solidity/contracts/math/SafeMath.sol\";\r\nimport \"./lib/strings.sol\";\r\n// References: https://github.com/OpenZeppelin/openzeppelin-solidity/blob/v1.8.0/contracts/token/ERC721/ERC721Token.sol\r\n\r\ncontract DMB is ERC721Token (\"DecentralizeMessagingBoard\", \"DMB\") {\r\n    using strings for *;\r\n    using SafeMath for uint256;\r\n\r\n    // These two are included in the open lib\r\n    string internal name_ = \"DecentralizeMessagingBoard\";\r\n    string internal symbol_ = \"DMB\";\r\n\r\n    uint256 public erc721TokenId = 1; // default tokenId for helping people to create unique id\r\n    mapping (uint256 => string) postIdTenantIdMap; //a map to trace postId => tenantId\r\n    //hack mapping for address to tenantId\r\n    mapping (address => string) addrTenantId;\r\n    mapping (string => string) tenantIdAffiliation;\r\n    //address  identityContract = 0x2F573d44cdE240d3938f0304509f97528aCcace5;\r\n    //address identityContract = 0xEFb78C21748DB2Cd40ba783ffD1a78402175E806;\r\n    address  identityContract = 0x0a8fb9074e29481f5A40d4f56f19E8499d889EF5;\r\n    IdentityStore idstore;\r\n    modifier isValid () {\r\n        require(idstore.isValid(msg.sender, 0)); //calling isValid  functino from Authenticator app\r\n        _;\r\n    }\r\n\r\n    // constructor\r\n    function DMB() public { \r\n        //Do some initialization\r\n        idstore = IdentityStore(identityContract);\r\n    }\r\n\r\n    // Function to issue certificate to a receiver\r\n    // _uri  : The string for the content of the post\r\n    // names  : The names of the signers (is ';' delimetered string)\r\n    // tenantId : The tenantId you want to post as..\r\n    function createNewPost(string post_body) isValid public {\r\n        //New generated token Id\r\n        //require(idstore.isValid(_tenantId, msg.sender, 0)); //check tenantId as well\r\n        uint256 newTokenId = erc721TokenId++;\r\n        super._mint(msg.sender, newTokenId);\r\n        super._setTokenURI(newTokenId, post_body);\r\n        //require(tenantId > 0);\r\n        postIdTenantIdMap[newTokenId] = idstore.getUserTenantId(msg.sender);        \r\n    }\r\n\r\n    //hack function to set the tenantId you want for the post\r\n    //and the tenantId affiliation\r\n    function setAffiliation(string affiliation) public{\r\n        //addrTenantId[msg.sender] = _tenantId;\r\n        //idstore.setTenant(keccak256(_tenantId), msg.sender, block.timestamp, _tenantId);\r\n        tenantIdAffiliation[idstore.getUserTenantId(msg.sender)] = affiliation;\r\n    }\r\n\r\n    function getTokenTenantId(uint256 tokenId) public view returns(string){\r\n        return postIdTenantIdMap[tokenId];\r\n    }\r\n\r\n    function getPostAuthorAffiliation(uint256 tokenId) public view returns(string){\r\n        return tenantIdAffiliation[getTokenTenantId(tokenId)];\r\n    }\r\n\r\n    function login() public view returns(bool){\r\n        return idstore.isValid(msg.sender, 0);\r\n    }\r\n}\r\n\r\n\r\n/**\r\n * @title Ownable\r\n * @dev The Ownable contract has an owner address, and provides basic authorization control\r\n * functions, this simplifies the implementation of \"user permissions\".\r\n */\r\ncontract Ownable {\r\n  address public owner;\r\n\r\n\r\n  event OwnershipRenounced(address indexed previousOwner);\r\n  event OwnershipTransferred(\r\n    address indexed previousOwner,\r\n    address indexed newOwner\r\n  );\r\n\r\n\r\n  /**\r\n   * @dev The Ownable constructor sets the original `owner` of the contract to the sender\r\n   * account.\r\n   */\r\n  constructor() public {\r\n    owner = msg.sender;\r\n  }\r\n\r\n  /**\r\n   * @dev Throws if called by any account other than the owner.\r\n   */\r\n  modifier onlyOwner() {\r\n    require(msg.sender == owner);\r\n    _;\r\n  }\r\n\r\n  /**\r\n   * @dev Allows the current owner to relinquish control of the contract.\r\n   * @notice Renouncing to ownership will leave the contract without an owner.\r\n   * It will not be possible to call the functions with the `onlyOwner`\r\n   * modifier anymore.\r\n   */\r\n  function renounceOwnership() public onlyOwner {\r\n    emit OwnershipRenounced(owner);\r\n    owner = address(0);\r\n  }\r\n\r\n  /**\r\n   * @dev Allows the current owner to transfer control of the contract to a newOwner.\r\n   * @param _newOwner The address to transfer ownership to.\r\n   */\r\n  function transferOwnership(address _newOwner) public onlyOwner {\r\n    _transferOwnership(_newOwner);\r\n  }\r\n\r\n  /**\r\n   * @dev Transfers control of the contract to a newOwner.\r\n   * @param _newOwner The address to transfer ownership to.\r\n   */\r\n  function _transferOwnership(address _newOwner) internal {\r\n    require(_newOwner != address(0));\r\n    emit OwnershipTransferred(owner, _newOwner);\r\n    owner = _newOwner;\r\n  }\r\n}\r\n\r\ncontract IdentityStore is Ownable {\r\n  \r\n    struct User {\r\n        bytes32 tenantHash;\r\n        uint256 timestamp;\r\n        string tenantId;\r\n    }\r\n\r\n    mapping(address => User) private tenantAddressMapping;\r\n    mapping(bytes32 => address) private tenantHashMapping; \r\n\r\n    function setTenant(\r\n        bytes32 _tenantHash,\r\n        address _userAddress,\r\n        uint256 _timestamp,\r\n        string _tenantId) onlyOwner public {\r\n\r\n        // Completely new user\r\n        if (!userAddressExists(_userAddress) && !userTenantHashExists(_tenantHash)) {\r\n            \r\n            User memory newUser = User(_tenantHash, _timestamp, _tenantId);\r\n            tenantAddressMapping[_userAddress] = newUser;\r\n            tenantHashMapping[_tenantHash] = _userAddress;\r\n            return;\r\n        }\r\n\r\n        // Update user hash.\r\n        if (userAddressExists(_userAddress) && !userTenantHashExists(_tenantHash)) {\r\n            \r\n            bytes32 oldHash = tenantAddressMapping[_userAddress].tenantHash;\r\n            updateHash(oldHash, _tenantHash, _timestamp);\r\n            return;\r\n        }\r\n        \r\n        // Update user address.\r\n        if (userTenantHashExists(_tenantHash) && !userAddressExists(_userAddress)) {\r\n            address oldAddress = tenantHashMapping[_tenantHash];\r\n            updateAddress(oldAddress, _userAddress);\r\n            return;\r\n        }\r\n        \r\n        // Update timestamp\r\n        if (userTenantHashExists(_tenantHash) && userAddressExists(_userAddress)) {\r\n            updateTimestamp(_tenantHash, _timestamp);\r\n            return;\r\n        }\r\n    }\r\n\r\n    function isValidTenant(\r\n        string _tenantId, \r\n        address _userAddress,\r\n        uint256 _minTimestamp) view public returns(bool) {\r\n\r\n        // check valid address\r\n        if(!userAddressExists(_userAddress)) {\r\n            return false;\r\n        }\r\n\r\n        User memory currentUser = tenantAddressMapping[_userAddress];\r\n\r\n        // check valid tenant id\r\n        if(keccak256(currentUser.tenantId) != keccak256(_tenantId)) {\r\n            return false;\r\n        }\r\n        \r\n        // check minimum timestamp\r\n        if(currentUser.timestamp < _minTimestamp) {\r\n            return false;\r\n        }\r\n\r\n        return true;\r\n    }\r\n\r\n    function isValid(address _userAddress, uint256 _minTimestamp) view public returns(bool) {\r\n\r\n        // check valid address\r\n        if(!userAddressExists(_userAddress)) {\r\n            return false;\r\n        }\r\n\r\n        User memory currentUser = tenantAddressMapping[_userAddress];\r\n\r\n        // check minimum timestamp\r\n        if(currentUser.timestamp < _minTimestamp) {\r\n            return false;\r\n        }\r\n\r\n        return true;\r\n    }\r\n    \r\n    function getUserTenantId(\r\n        address _userAddress) view public returns(string) {\r\n        require(userAddressExists(_userAddress), \"There's no account tied to the address\");\r\n        return tenantAddressMapping[_userAddress].tenantId;\r\n    }\r\n\r\n    function updateHash(\r\n        bytes32 _oldHash, \r\n        bytes32 _newHash, \r\n        uint256 _timestamp) internal {\r\n\r\n        require(userTenantHashExists(_oldHash), \"Old hash does not exist.\");\r\n        require(!userTenantHashExists(_newHash), \"New hash is already registered.\");\r\n        address currentAddress = tenantHashMapping[_oldHash];\r\n        User memory oldUserInfo = tenantAddressMapping[currentAddress];\r\n        User memory newUserInfo = User(_newHash, _timestamp, oldUserInfo.tenantId);\r\n\r\n        // update address mapping to user\r\n        tenantAddressMapping[currentAddress] = newUserInfo;\r\n\r\n        // delete old hash mapping to address\r\n        delete tenantHashMapping[_oldHash];\r\n\r\n        // add new hash mapping to address\r\n        tenantHashMapping[_newHash] = currentAddress;\r\n    }\r\n\r\n    function updateAddress(address oldUserAddress, address newUserAddress) onlyOwner internal {\r\n        User memory existingUser = tenantAddressMapping[oldUserAddress];\r\n        \r\n        require(!userAddressExists(newUserAddress), \"There's already an account tied to this address\");\r\n        require(userAddressExists(oldUserAddress), \"There's no account tied to the address origin\");\r\n\r\n        tenantHashMapping[existingUser.tenantHash] = newUserAddress;\r\n        tenantAddressMapping[newUserAddress] = existingUser;\r\n        delete tenantAddressMapping[oldUserAddress];\r\n    }\r\n\r\n    function updateTimestamp(bytes32 _tenantHash, uint256 _timestamp) onlyOwner internal {\r\n        tenantAddressMapping[tenantHashMapping[_tenantHash]].timestamp = _timestamp;\r\n    }\r\n\r\n    function userAddressExists(address userAddress) view internal returns(bool) {       \r\n        if(tenantAddressMapping[userAddress].tenantHash == 0) {\r\n            return false;\r\n        }\r\n        return true;\r\n    }\r\n\r\n    function userTenantHashExists(bytes32 tenantHash) view internal returns(bool){\r\n        // pray it be who can find the 0X Address\r\n        if(tenantHashMapping[tenantHash] == 0) {\r\n            return false;\r\n        }\r\n        return true;\r\n    }\r\n}",
  "sourcePath": "C:\\workspace\\MicrosoftHackathon\\Decentralize-Messaging-Board\\contracts\\DMB.sol",
  "compiler": {
    "name": "solc",
    "version": "0.4.24+commit.e67f0147.Emscripten.clang"
  },
  "schemaVersion": "2.0.1",
  "updatedAt": "2018-07-26T20:55:29.467Z"
}