{
  "contractName": "DMB",
  "abi": [
    {
      "constant": true,
      "inputs": [
        {
          "name": "_interfaceId",
          "type": "bytes4"
        }
      ],
      "name": "supportsInterface",
      "outputs": [
        {
          "name": "",
          "type": "bool"
        }
      ],
      "payable": false,
      "stateMutability": "view",
      "type": "function"
    },
    {
      "constant": true,
      "inputs": [],
      "name": "name",
      "outputs": [
        {
          "name": "",
          "type": "string"
        }
      ],
      "payable": false,
      "stateMutability": "view",
      "type": "function"
    },
    {
      "constant": true,
      "inputs": [
        {
          "name": "_tokenId",
          "type": "uint256"
        }
      ],
      "name": "getApproved",
      "outputs": [
        {
          "name": "",
          "type": "address"
        }
      ],
      "payable": false,
      "stateMutability": "view",
      "type": "function"
    },
    {
      "constant": false,
      "inputs": [
        {
          "name": "_to",
          "type": "address"
        },
        {
          "name": "_tokenId",
          "type": "uint256"
        }
      ],
      "name": "approve",
      "outputs": [],
      "payable": false,
      "stateMutability": "nonpayable",
      "type": "function"
    },
    {
      "constant": true,
      "inputs": [],
      "name": "totalSupply",
      "outputs": [
        {
          "name": "",
          "type": "uint256"
        }
      ],
      "payable": false,
      "stateMutability": "view",
      "type": "function"
    },
    {
      "constant": true,
      "inputs": [],
      "name": "InterfaceId_ERC165",
      "outputs": [
        {
          "name": "",
          "type": "bytes4"
        }
      ],
      "payable": false,
      "stateMutability": "view",
      "type": "function"
    },
    {
      "constant": false,
      "inputs": [
        {
          "name": "_from",
          "type": "address"
        },
        {
          "name": "_to",
          "type": "address"
        },
        {
          "name": "_tokenId",
          "type": "uint256"
        }
      ],
      "name": "transferFrom",
      "outputs": [],
      "payable": false,
      "stateMutability": "nonpayable",
      "type": "function"
    },
    {
      "constant": true,
      "inputs": [
        {
          "name": "_owner",
          "type": "address"
        },
        {
          "name": "_index",
          "type": "uint256"
        }
      ],
      "name": "tokenOfOwnerByIndex",
      "outputs": [
        {
          "name": "",
          "type": "uint256"
        }
      ],
      "payable": false,
      "stateMutability": "view",
      "type": "function"
    },
    {
      "constant": false,
      "inputs": [
        {
          "name": "_from",
          "type": "address"
        },
        {
          "name": "_to",
          "type": "address"
        },
        {
          "name": "_tokenId",
          "type": "uint256"
        }
      ],
      "name": "safeTransferFrom",
      "outputs": [],
      "payable": false,
      "stateMutability": "nonpayable",
      "type": "function"
    },
    {
      "constant": true,
      "inputs": [
        {
          "name": "_tokenId",
          "type": "uint256"
        }
      ],
      "name": "exists",
      "outputs": [
        {
          "name": "",
          "type": "bool"
        }
      ],
      "payable": false,
      "stateMutability": "view",
      "type": "function"
    },
    {
      "constant": true,
      "inputs": [
        {
          "name": "_index",
          "type": "uint256"
        }
      ],
      "name": "tokenByIndex",
      "outputs": [
        {
          "name": "",
          "type": "uint256"
        }
      ],
      "payable": false,
      "stateMutability": "view",
      "type": "function"
    },
    {
      "constant": true,
      "inputs": [
        {
          "name": "_tokenId",
          "type": "uint256"
        }
      ],
      "name": "ownerOf",
      "outputs": [
        {
          "name": "",
          "type": "address"
        }
      ],
      "payable": false,
      "stateMutability": "view",
      "type": "function"
    },
    {
      "constant": true,
      "inputs": [
        {
          "name": "_owner",
          "type": "address"
        }
      ],
      "name": "balanceOf",
      "outputs": [
        {
          "name": "",
          "type": "uint256"
        }
      ],
      "payable": false,
      "stateMutability": "view",
      "type": "function"
    },
    {
      "constant": true,
      "inputs": [],
      "name": "erc721TokenId",
      "outputs": [
        {
          "name": "",
          "type": "uint256"
        }
      ],
      "payable": false,
      "stateMutability": "view",
      "type": "function"
    },
    {
      "constant": true,
      "inputs": [],
      "name": "symbol",
      "outputs": [
        {
          "name": "",
          "type": "string"
        }
      ],
      "payable": false,
      "stateMutability": "view",
      "type": "function"
    },
    {
      "constant": false,
      "inputs": [
        {
          "name": "_to",
          "type": "address"
        },
        {
          "name": "_approved",
          "type": "bool"
        }
      ],
      "name": "setApprovalForAll",
      "outputs": [],
      "payable": false,
      "stateMutability": "nonpayable",
      "type": "function"
    },
    {
      "constant": false,
      "inputs": [
        {
          "name": "_from",
          "type": "address"
        },
        {
          "name": "_to",
          "type": "address"
        },
        {
          "name": "_tokenId",
          "type": "uint256"
        },
        {
          "name": "_data",
          "type": "bytes"
        }
      ],
      "name": "safeTransferFrom",
      "outputs": [],
      "payable": false,
      "stateMutability": "nonpayable",
      "type": "function"
    },
    {
      "constant": true,
      "inputs": [
        {
          "name": "_tokenId",
          "type": "uint256"
        }
      ],
      "name": "tokenURI",
      "outputs": [
        {
          "name": "",
          "type": "string"
        }
      ],
      "payable": false,
      "stateMutability": "view",
      "type": "function"
    },
    {
      "constant": true,
      "inputs": [
        {
          "name": "_owner",
          "type": "address"
        },
        {
          "name": "_operator",
          "type": "address"
        }
      ],
      "name": "isApprovedForAll",
      "outputs": [
        {
          "name": "",
          "type": "bool"
        }
      ],
      "payable": false,
      "stateMutability": "view",
      "type": "function"
    },
    {
      "inputs": [],
      "payable": false,
      "stateMutability": "nonpayable",
      "type": "constructor"
    },
    {
      "anonymous": false,
      "inputs": [
        {
          "indexed": true,
          "name": "_from",
          "type": "address"
        },
        {
          "indexed": true,
          "name": "_to",
          "type": "address"
        },
        {
          "indexed": true,
          "name": "_tokenId",
          "type": "uint256"
        }
      ],
      "name": "Transfer",
      "type": "event"
    },
    {
      "anonymous": false,
      "inputs": [
        {
          "indexed": true,
          "name": "_owner",
          "type": "address"
        },
        {
          "indexed": true,
          "name": "_approved",
          "type": "address"
        },
        {
          "indexed": true,
          "name": "_tokenId",
          "type": "uint256"
        }
      ],
      "name": "Approval",
      "type": "event"
    },
    {
      "anonymous": false,
      "inputs": [
        {
          "indexed": true,
          "name": "_owner",
          "type": "address"
        },
        {
          "indexed": true,
          "name": "_operator",
          "type": "address"
        },
        {
          "indexed": false,
          "name": "_approved",
          "type": "bool"
        }
      ],
      "name": "ApprovalForAll",
      "type": "event"
    },
    {
      "constant": false,
      "inputs": [
        {
          "name": "post_body",
          "type": "string"
        }
      ],
      "name": "createNewPost",
      "outputs": [],
      "payable": false,
      "stateMutability": "nonpayable",
      "type": "function"
    },
    {
      "constant": false,
      "inputs": [
        {
          "name": "affiliation",
          "type": "string"
        }
      ],
      "name": "setAffiliation",
      "outputs": [],
      "payable": false,
      "stateMutability": "nonpayable",
      "type": "function"
    },
    {
      "constant": true,
      "inputs": [
        {
          "name": "tokenId",
          "type": "uint256"
        }
      ],
      "name": "getTokenTenantId",
      "outputs": [
        {
          "name": "",
          "type": "string"
        }
      ],
      "payable": false,
      "stateMutability": "view",
      "type": "function"
    },
    {
      "constant": true,
      "inputs": [
        {
          "name": "tokenId",
          "type": "uint256"
        }
      ],
      "name": "getPostAuthorAffiliation",
      "outputs": [
        {
          "name": "",
          "type": "string"
        }
      ],
      "payable": false,
      "stateMutability": "view",
      "type": "function"
    },
    {
      "constant": true,
      "inputs": [],
      "name": "login",
      "outputs": [
        {
          "name": "",
          "type": "bool"
        }
      ],
      "payable": false,
      "stateMutability": "view",
      "type": "function"
    }
  ],
  "bytecode": "0x60c0604052601a60808190527f446563656e7472616c697a654d6573736167696e67426f61726400000000000060a09081526200004091600c9190620002f1565b506040805180820190915260038082527f444d42000000000000000000000000000000000000000000000000000000000060209092019182526200008791600d91620002f1565b506001600e5560128054600160a060020a031916730a8fb9074e29481f5a40d4f56f19e8499d889ef5179055348015620000c057600080fd5b50604080518082018252601a81527f446563656e7472616c697a654d6573736167696e67426f6172640000000000006020808301919091528251808401909352600383527f444d42000000000000000000000000000000000000000000000000000000000090830152906200015e7f01ffc9a70000000000000000000000000000000000000000000000000000000064010000000062000284810204565b620001927f80ac58cd0000000000000000000000000000000000000000000000000000000064010000000062000284810204565b620001c67f4f558e790000000000000000000000000000000000000000000000000000000064010000000062000284810204565b8151620001db906005906020850190620002f1565b508051620001f1906006906020840190620002f1565b50620002267f780e9d630000000000000000000000000000000000000000000000000000000064010000000062000284810204565b6200025a7f5b5e139f0000000000000000000000000000000000000000000000000000000064010000000062000284810204565b505060125460138054600160a060020a031916600160a060020a0390921691909117905562000396565b7fffffffff000000000000000000000000000000000000000000000000000000008082161415620002b457600080fd5b7fffffffff00000000000000000000000000000000000000000000000000000000166000908152602081905260409020805460ff19166001179055565b828054600181600116156101000203166002900490600052602060002090601f016020900481019282601f106200033457805160ff191683800117855562000364565b8280016001018555821562000364579182015b828111156200036457825182559160200191906001019062000347565b506200037292915062000376565b5090565b6200039391905b808211156200037257600081556001016200037d565b90565b61174e80620003a66000396000f30060806040526004361061013d5763ffffffff7c010000000000000000000000000000000000000000000000000000000060003504166301ffc9a781146101425780630576759d1461018d57806306fdde03146101e8578063081812fc14610272578063095ea7b3146102a657806318160ddd146102ca57806319fa8f50146102f157806323b872dd146103385780632f745c591461036257806332ddb2b91461038657806342842e0e1461039e5780634f558e79146103c85780634f6ccce7146103e057806355995c18146103f85780636352211e1461041057806370a08231146104285780637239c5ea1461044957806384e78bf41461045e57806395d89b41146104b7578063a22cb465146104cc578063b34e97e8146104f2578063b88d4fde14610507578063c87b56dd14610576578063e985e9c51461058e575b600080fd5b34801561014e57600080fd5b506101797bffffffffffffffffffffffffffffffffffffffffffffffffffffffff19600435166105b5565b604080519115158252519081900360200190f35b34801561019957600080fd5b506040805160206004803580820135601f81018490048402850184019095528484526101e69436949293602493928401919081908401838280828437509497506105e99650505050505050565b005b3480156101f457600080fd5b506101fd610751565b6040805160208082528351818301528351919283929083019185019080838360005b8381101561023757818101518382015260200161021f565b50505050905090810190601f1680156102645780820380516001836020036101000a031916815260200191505b509250505060405180910390f35b34801561027e57600080fd5b5061028a6004356107e8565b60408051600160a060020a039092168252519081900360200190f35b3480156102b257600080fd5b506101e6600160a060020a0360043516602435610803565b3480156102d657600080fd5b506102df6108b9565b60408051918252519081900360200190f35b3480156102fd57600080fd5b506103066108bf565b604080517bffffffffffffffffffffffffffffffffffffffffffffffffffffffff199092168252519081900360200190f35b34801561034457600080fd5b506101e6600160a060020a03600435811690602435166044356108e3565b34801561036e57600080fd5b506102df600160a060020a0360043516602435610988565b34801561039257600080fd5b506101fd6004356109d5565b3480156103aa57600080fd5b506101e6600160a060020a0360043581169060243516604435610a76565b3480156103d457600080fd5b50610179600435610aae565b3480156103ec57600080fd5b506102df600435610acb565b34801561040457600080fd5b506101fd600435610b00565b34801561041c57600080fd5b5061028a600435610bc5565b34801561043457600080fd5b506102df600160a060020a0360043516610bef565b34801561045557600080fd5b506102df610c22565b34801561046a57600080fd5b506040805160206004803580820135601f81018490048402850184019095528484526101e6943694929360249392840191908190840183828082843750949750610c289650505050505050565b3480156104c357600080fd5b506101fd610dff565b3480156104d857600080fd5b506101e6600160a060020a03600435166024351515610e60565b3480156104fe57600080fd5b50610179610ee4565b34801561051357600080fd5b50604080516020601f6064356004818101359283018490048402850184019095528184526101e694600160a060020a038135811695602480359092169560443595369560849401918190840183828082843750949750610f839650505050505050565b34801561058257600080fd5b506101fd600435610fc2565b34801561059a57600080fd5b50610179600160a060020a0360043581169060243516611040565b7bffffffffffffffffffffffffffffffffffffffffffffffffffffffff191660009081526020819052604090205460ff1690565b601354604080517faaa668aa00000000000000000000000000000000000000000000000000000000815233600482015290518392601192600160a060020a039091169163aaa668aa9160248082019260009290919082900301818387803b15801561065357600080fd5b505af1158015610667573d6000803e3d6000fd5b505050506040513d6000823e601f3d908101601f19168201604052602081101561069057600080fd5b8101908080516401000000008111156106a857600080fd5b820160208101848111156106bb57600080fd5b81516401000000008111828201871017156106d557600080fd5b50509291905050506040518082805190602001908083835b6020831061070c5780518252601f1990920191602091820191016106ed565b51815160209384036101000a6000190180199092169116179052920194855250604051938490038101909320845161074d959194919091019250905061166a565b5050565b60058054604080516020601f60026000196101006001881615020190951694909404938401819004810282018101909252828152606093909290918301828280156107dd5780601f106107b2576101008083540402835291602001916107dd565b820191906000526020600020905b8154815290600101906020018083116107c057829003601f168201915b505050505090505b90565b600090815260026020526040902054600160a060020a031690565b600061080e82610bc5565b9050600160a060020a03838116908216141561082957600080fd5b33600160a060020a038216148061084557506108458133611040565b151561085057600080fd5b600082815260026020526040808220805473ffffffffffffffffffffffffffffffffffffffff1916600160a060020a0387811691821790925591518593918516917f8c5be1e5ebec7d5bd14f71427d1e84f3dd0314c0f7b2291e5b200ac8c7c3b92591a4505050565b60095490565b7f01ffc9a70000000000000000000000000000000000000000000000000000000081565b806108ee338261106e565b15156108f957600080fd5b600160a060020a038416151561090e57600080fd5b600160a060020a038316151561092357600080fd5b61092d84836110cd565b610937848361113c565b6109418383611275565b8183600160a060020a031685600160a060020a03167fddf252ad1be2c89b69c2b068fc378daa952ba7f163c4a11628f55a4df523b3ef60405160405180910390a450505050565b600061099383610bef565b821061099e57600080fd5b600160a060020a03831660009081526007602052604090208054839081106109c257fe5b9060005260206000200154905092915050565b6000818152600f602090815260409182902080548351601f6002600019610100600186161502019093169290920491820184900484028101840190945280845260609392830182828015610a6a5780601f10610a3f57610100808354040283529160200191610a6a565b820191906000526020600020905b815481529060010190602001808311610a4d57829003601f168201915b50505050509050919050565b80610a81338261106e565b1515610a8c57600080fd5b610aa88484846020604051908101604052806000815250610f83565b50505050565b600090815260016020526040902054600160a060020a0316151590565b6000610ad56108b9565b8210610ae057600080fd5b6009805483908110610aee57fe5b90600052602060002001549050919050565b60606011610b0d836109d5565b6040518082805190602001908083835b60208310610b3c5780518252601f199092019160209182019101610b1d565b518151600019602094850361010090810a820192831692199390931691909117909252949092019687526040805197889003820188208054601f6002600183161590980290950116959095049283018290048202880182019052818752929450925050830182828015610a6a5780601f10610a3f57610100808354040283529160200191610a6a565b600081815260016020526040812054600160a060020a0316801515610be957600080fd5b92915050565b6000600160a060020a0382161515610c0657600080fd5b50600160a060020a031660009081526003602052604090205490565b600e5481565b601354604080517f5964798400000000000000000000000000000000000000000000000000000000815233600482015260006024820181905291519192600160a060020a03169163596479849160448082019260209290919082900301818787803b158015610c9657600080fd5b505af1158015610caa573d6000803e3d6000fd5b505050506040513d6020811015610cc057600080fd5b50511515610ccd57600080fd5b50600e805460018101909155610ce333826112be565b610ced818361130d565b601354604080517faaa668aa0000000000000000000000000000000000000000000000000000000081523360048201529051600160a060020a039092169163aaa668aa9160248082019260009290919082900301818387803b158015610d5257600080fd5b505af1158015610d66573d6000803e3d6000fd5b505050506040513d6000823e601f3d908101601f191682016040526020811015610d8f57600080fd5b810190808051640100000000811115610da757600080fd5b82016020810184811115610dba57600080fd5b8151640100000000811182820187101715610dd457600080fd5b50506000858152600f602090815260409091208251610dfa96509094509101915061166a565b505050565b60068054604080516020601f60026000196101006001881615020190951694909404938401819004810282018101909252828152606093909290918301828280156107dd5780601f106107b2576101008083540402835291602001916107dd565b600160a060020a038216331415610e7657600080fd5b336000818152600460209081526040808320600160a060020a03871680855290835292819020805460ff1916861515908117909155815190815290519293927f17307eab39ab6107e8899845ad3d59bd9653f200f220920489ca2b5937696c31929181900390910190a35050565b601354604080517f5964798400000000000000000000000000000000000000000000000000000000815233600482015260006024820181905291519192600160a060020a03169163596479849160448082019260209290919082900301818787803b158015610f5257600080fd5b505af1158015610f66573d6000803e3d6000fd5b505050506040513d6020811015610f7c57600080fd5b5051905090565b81610f8e338261106e565b1515610f9957600080fd5b610fa48585856108e3565b610fb085858585611340565b1515610fbb57600080fd5b5050505050565b6060610fcd82610aae565b1515610fd857600080fd5b6000828152600b602090815260409182902080548351601f600260001961010060018616150201909316929092049182018490048402810184019094528084529091830182828015610a6a5780601f10610a3f57610100808354040283529160200191610a6a565b600160a060020a03918216600090815260046020908152604080832093909416825291909152205460ff1690565b60008061107a83610bc5565b905080600160a060020a031684600160a060020a031614806110b5575083600160a060020a03166110aa846107e8565b600160a060020a0316145b806110c557506110c58185611040565b949350505050565b81600160a060020a03166110e082610bc5565b600160a060020a0316146110f357600080fd5b600081815260026020526040902054600160a060020a03161561074d576000908152600260205260409020805473ffffffffffffffffffffffffffffffffffffffff1916905550565b600080600061114b85856114c2565b600084815260086020908152604080832054600160a060020a038916845260079092529091205490935061118690600163ffffffff61155816565b600160a060020a0386166000908152600760205260409020805491935090839081106111ae57fe5b90600052602060002001549050806007600087600160a060020a0316600160a060020a03168152602001908152602001600020848154811015156111ee57fe5b6000918252602080832090910192909255600160a060020a038716815260079091526040812080548490811061122057fe5b6000918252602080832090910192909255600160a060020a03871681526007909152604090208054906112579060001983016116e8565b50600093845260086020526040808520859055908452909220555050565b6000611281838361156a565b50600160a060020a039091166000908152600760209081526040808320805460018101825590845282842081018590559383526008909152902055565b6112c882826115fa565b600980546000838152600a60205260408120829055600182018355919091527f6e1540171b6c0c960b71a7020d9f60077f6af931a8bbf590da0223dacf75c7af015550565b61131682610aae565b151561132157600080fd5b6000828152600b602090815260409091208251610dfa9284019061166a565b60008061135585600160a060020a0316611655565b151561136457600191506114b9565b6040517f150b7a020000000000000000000000000000000000000000000000000000000081523360048201818152600160a060020a03898116602485015260448401889052608060648501908152875160848601528751918a169463150b7a0294938c938b938b93909160a490910190602085019080838360005b838110156113f75781810151838201526020016113df565b50505050905090810190601f1680156114245780820380516001836020036101000a031916815260200191505b5095505050505050602060405180830381600087803b15801561144657600080fd5b505af115801561145a573d6000803e3d6000fd5b505050506040513d602081101561147057600080fd5b50517bffffffffffffffffffffffffffffffffffffffffffffffffffffffff1981167f150b7a020000000000000000000000000000000000000000000000000000000014925090505b50949350505050565b81600160a060020a03166114d582610bc5565b600160a060020a0316146114e857600080fd5b600160a060020a03821660009081526003602052604090205461151290600163ffffffff61155816565b600160a060020a03909216600090815260036020908152604080832094909455918152600190915220805473ffffffffffffffffffffffffffffffffffffffff19169055565b60008282111561156457fe5b50900390565b600081815260016020526040902054600160a060020a03161561158c57600080fd5b6000818152600160208181526040808420805473ffffffffffffffffffffffffffffffffffffffff1916600160a060020a03881690811790915584526003909152909120546115da9161165d565b600160a060020a0390921660009081526003602052604090209190915550565b600160a060020a038216151561160f57600080fd5b6116198282611275565b6040518190600160a060020a038416906000907fddf252ad1be2c89b69c2b068fc378daa952ba7f163c4a11628f55a4df523b3ef908290a45050565b6000903b1190565b81810182811015610be957fe5b828054600181600116156101000203166002900490600052602060002090601f016020900481019282601f106116ab57805160ff19168380011785556116d8565b828001600101855582156116d8579182015b828111156116d85782518255916020019190600101906116bd565b506116e4929150611708565b5090565b815481835581811115610dfa57600083815260209020610dfa9181019083015b6107e591905b808211156116e4576000815560010161170e5600a165627a7a723058206f261976a03b83248bf46109719ff505e15c38da65d55c13466ffbc824fed26b0029",
  "source": "pragma solidity 0.4.24;\r\n\r\nimport \"zeppelin-solidity/contracts/token/ERC721/ERC721Token.sol\";\r\nimport \"zeppelin-solidity/contracts/math/SafeMath.sol\";\r\nimport \"./lib/strings.sol\";\r\n// References: https://github.com/OpenZeppelin/openzeppelin-solidity/blob/v1.8.0/contracts/token/ERC721/ERC721Token.sol\r\n\r\ncontract DMB is ERC721Token (\"DecentralizeMessagingBoard\", \"DMB\") {\r\n    using strings for *;\r\n    using SafeMath for uint256;\r\n\r\n    // These two are included in the open lib\r\n    string internal name_ = \"DecentralizeMessagingBoard\";\r\n    string internal symbol_ = \"DMB\";\r\n\r\n    uint256 public erc721TokenId = 1; // default tokenId for helping people to create unique id\r\n    mapping (uint256 => string) postIdTenantIdMap; //a map to trace postId => tenantId\r\n    //hack mapping for address to tenantId\r\n    mapping (address => string) addrTenantId;\r\n    mapping (string => string) tenantIdAffiliation;\r\n    //address  identityContract = 0x2F573d44cdE240d3938f0304509f97528aCcace5;\r\n    //address identityContract = 0xEFb78C21748DB2Cd40ba783ffD1a78402175E806;\r\n    address  identityContract = 0x0a8fb9074e29481f5A40d4f56f19E8499d889EF5;\r\n    IdentityStore idstore;\r\n    modifier isValid () {\r\n        require(idstore.isValid(msg.sender, 0)); //calling isValid  functino from Authenticator app\r\n        _;\r\n    }\r\n\r\n    // constructor\r\n    function DMB() public { \r\n        //Do some initialization\r\n        idstore = IdentityStore(identityContract);\r\n    }\r\n\r\n    // Function to issue certificate to a receiver\r\n    // _uri  : The string for the content of the post\r\n    // names  : The names of the signers (is ';' delimetered string)\r\n    // tenantId : The tenantId you want to post as..\r\n    function createNewPost(string post_body) isValid public {\r\n        //New generated token Id\r\n        //require(idstore.isValid(_tenantId, msg.sender, 0)); //check tenantId as well\r\n        uint256 newTokenId = erc721TokenId++;\r\n        super._mint(msg.sender, newTokenId);\r\n        super._setTokenURI(newTokenId, post_body);\r\n        //require(tenantId > 0);\r\n        postIdTenantIdMap[newTokenId] = idstore.getUserTenantId(msg.sender);        \r\n    }\r\n\r\n    //hack function to set the tenantId you want for the post\r\n    //and the tenantId affiliation\r\n    function setAffiliation(string affiliation) public{\r\n        //addrTenantId[msg.sender] = _tenantId;\r\n        //idstore.setTenant(keccak256(_tenantId), msg.sender, block.timestamp, _tenantId);\r\n        tenantIdAffiliation[idstore.getUserTenantId(msg.sender)] = affiliation;\r\n    }\r\n\r\n    function getTokenTenantId(uint256 tokenId) public view returns(string){\r\n        return postIdTenantIdMap[tokenId];\r\n    }\r\n\r\n    function getPostAuthorAffiliation(uint256 tokenId) public view returns(string){\r\n        return tenantIdAffiliation[getTokenTenantId(tokenId)];\r\n    }\r\n\r\n    function login() public view returns(bool){\r\n        return idstore.isValid(msg.sender, 0);\r\n    }\r\n}\r\n\r\n\r\n/**\r\n * @title Ownable\r\n * @dev The Ownable contract has an owner address, and provides basic authorization control\r\n * functions, this simplifies the implementation of \"user permissions\".\r\n */\r\ncontract Ownable {\r\n  address public owner;\r\n\r\n\r\n  event OwnershipRenounced(address indexed previousOwner);\r\n  event OwnershipTransferred(\r\n    address indexed previousOwner,\r\n    address indexed newOwner\r\n  );\r\n\r\n\r\n  /**\r\n   * @dev The Ownable constructor sets the original `owner` of the contract to the sender\r\n   * account.\r\n   */\r\n  constructor() public {\r\n    owner = msg.sender;\r\n  }\r\n\r\n  /**\r\n   * @dev Throws if called by any account other than the owner.\r\n   */\r\n  modifier onlyOwner() {\r\n    require(msg.sender == owner);\r\n    _;\r\n  }\r\n\r\n  /**\r\n   * @dev Allows the current owner to relinquish control of the contract.\r\n   * @notice Renouncing to ownership will leave the contract without an owner.\r\n   * It will not be possible to call the functions with the `onlyOwner`\r\n   * modifier anymore.\r\n   */\r\n  function renounceOwnership() public onlyOwner {\r\n    emit OwnershipRenounced(owner);\r\n    owner = address(0);\r\n  }\r\n\r\n  /**\r\n   * @dev Allows the current owner to transfer control of the contract to a newOwner.\r\n   * @param _newOwner The address to transfer ownership to.\r\n   */\r\n  function transferOwnership(address _newOwner) public onlyOwner {\r\n    _transferOwnership(_newOwner);\r\n  }\r\n\r\n  /**\r\n   * @dev Transfers control of the contract to a newOwner.\r\n   * @param _newOwner The address to transfer ownership to.\r\n   */\r\n  function _transferOwnership(address _newOwner) internal {\r\n    require(_newOwner != address(0));\r\n    emit OwnershipTransferred(owner, _newOwner);\r\n    owner = _newOwner;\r\n  }\r\n}\r\n\r\ncontract IdentityStore is Ownable {\r\n  \r\n    struct User {\r\n        bytes32 tenantHash;\r\n        uint256 timestamp;\r\n        string tenantId;\r\n    }\r\n\r\n    mapping(address => User) private tenantAddressMapping;\r\n    mapping(bytes32 => address) private tenantHashMapping; \r\n\r\n    function setTenant(\r\n        bytes32 _tenantHash,\r\n        address _userAddress,\r\n        uint256 _timestamp,\r\n        string _tenantId) onlyOwner public {\r\n\r\n        // Completely new user\r\n        if (!userAddressExists(_userAddress) && !userTenantHashExists(_tenantHash)) {\r\n            \r\n            User memory newUser = User(_tenantHash, _timestamp, _tenantId);\r\n            tenantAddressMapping[_userAddress] = newUser;\r\n            tenantHashMapping[_tenantHash] = _userAddress;\r\n            return;\r\n        }\r\n\r\n        // Update user hash.\r\n        if (userAddressExists(_userAddress) && !userTenantHashExists(_tenantHash)) {\r\n            \r\n            bytes32 oldHash = tenantAddressMapping[_userAddress].tenantHash;\r\n            updateHash(oldHash, _tenantHash, _timestamp);\r\n            return;\r\n        }\r\n        \r\n        // Update user address.\r\n        if (userTenantHashExists(_tenantHash) && !userAddressExists(_userAddress)) {\r\n            address oldAddress = tenantHashMapping[_tenantHash];\r\n            updateAddress(oldAddress, _userAddress);\r\n            return;\r\n        }\r\n        \r\n        // Update timestamp\r\n        if (userTenantHashExists(_tenantHash) && userAddressExists(_userAddress)) {\r\n            updateTimestamp(_tenantHash, _timestamp);\r\n            return;\r\n        }\r\n    }\r\n\r\n    function isValidTenant(\r\n        string _tenantId, \r\n        address _userAddress,\r\n        uint256 _minTimestamp) view public returns(bool) {\r\n\r\n        // check valid address\r\n        if(!userAddressExists(_userAddress)) {\r\n            return false;\r\n        }\r\n\r\n        User memory currentUser = tenantAddressMapping[_userAddress];\r\n\r\n        // check valid tenant id\r\n        if(keccak256(currentUser.tenantId) != keccak256(_tenantId)) {\r\n            return false;\r\n        }\r\n        \r\n        // check minimum timestamp\r\n        if(currentUser.timestamp < _minTimestamp) {\r\n            return false;\r\n        }\r\n\r\n        return true;\r\n    }\r\n\r\n    function isValid(address _userAddress, uint256 _minTimestamp) view public returns(bool) {\r\n\r\n        // check valid address\r\n        if(!userAddressExists(_userAddress)) {\r\n            return false;\r\n        }\r\n\r\n        User memory currentUser = tenantAddressMapping[_userAddress];\r\n\r\n        // check minimum timestamp\r\n        if(currentUser.timestamp < _minTimestamp) {\r\n            return false;\r\n        }\r\n\r\n        return true;\r\n    }\r\n    \r\n    function getUserTenantId(\r\n        address _userAddress) view public returns(string) {\r\n        require(userAddressExists(_userAddress), \"There's no account tied to the address\");\r\n        return tenantAddressMapping[_userAddress].tenantId;\r\n    }\r\n\r\n    function updateHash(\r\n        bytes32 _oldHash, \r\n        bytes32 _newHash, \r\n        uint256 _timestamp) internal {\r\n\r\n        require(userTenantHashExists(_oldHash), \"Old hash does not exist.\");\r\n        require(!userTenantHashExists(_newHash), \"New hash is already registered.\");\r\n        address currentAddress = tenantHashMapping[_oldHash];\r\n        User memory oldUserInfo = tenantAddressMapping[currentAddress];\r\n        User memory newUserInfo = User(_newHash, _timestamp, oldUserInfo.tenantId);\r\n\r\n        // update address mapping to user\r\n        tenantAddressMapping[currentAddress] = newUserInfo;\r\n\r\n        // delete old hash mapping to address\r\n        delete tenantHashMapping[_oldHash];\r\n\r\n        // add new hash mapping to address\r\n        tenantHashMapping[_newHash] = currentAddress;\r\n    }\r\n\r\n    function updateAddress(address oldUserAddress, address newUserAddress) onlyOwner internal {\r\n        User memory existingUser = tenantAddressMapping[oldUserAddress];\r\n        \r\n        require(!userAddressExists(newUserAddress), \"There's already an account tied to this address\");\r\n        require(userAddressExists(oldUserAddress), \"There's no account tied to the address origin\");\r\n\r\n        tenantHashMapping[existingUser.tenantHash] = newUserAddress;\r\n        tenantAddressMapping[newUserAddress] = existingUser;\r\n        delete tenantAddressMapping[oldUserAddress];\r\n    }\r\n\r\n    function updateTimestamp(bytes32 _tenantHash, uint256 _timestamp) onlyOwner internal {\r\n        tenantAddressMapping[tenantHashMapping[_tenantHash]].timestamp = _timestamp;\r\n    }\r\n\r\n    function userAddressExists(address userAddress) view internal returns(bool) {       \r\n        if(tenantAddressMapping[userAddress].tenantHash == 0) {\r\n            return false;\r\n        }\r\n        return true;\r\n    }\r\n\r\n    function userTenantHashExists(bytes32 tenantHash) view internal returns(bool){\r\n        // pray it be who can find the 0X Address\r\n        if(tenantHashMapping[tenantHash] == 0) {\r\n            return false;\r\n        }\r\n        return true;\r\n    }\r\n}",
  "sourcePath": "C:\\workspace\\MicrosoftHackathon\\Decentralize-Messaging-Board\\contracts\\DMB.sol",
  "compiler": {
    "name": "solc",
    "version": "0.4.24+commit.e67f0147.Emscripten.clang"
  },
  "schemaVersion": "2.0.1",
  "updatedAt": "2018-07-26T20:57:36.616Z"
}