{
  "contractName": "IdentityStore",
  "abi": [
    {
      "constant": true,
      "inputs": [
        {
          "name": "",
          "type": "address"
        }
      ],
      "name": "tenantMapping",
      "outputs": [
        {
          "name": "",
          "type": "string"
        }
      ],
      "payable": false,
      "stateMutability": "view",
      "type": "function"
    },
    {
      "constant": true,
      "inputs": [],
      "name": "isAlive",
      "outputs": [
        {
          "name": "alive",
          "type": "bool"
        }
      ],
      "payable": false,
      "stateMutability": "pure",
      "type": "function"
    },
    {
      "constant": true,
      "inputs": [
        {
          "name": "userAddress",
          "type": "address"
        },
        {
          "name": "validDays",
          "type": "uint256"
        }
      ],
      "name": "hasAccountExpired",
      "outputs": [
        {
          "name": "",
          "type": "bool"
        }
      ],
      "payable": false,
      "stateMutability": "view",
      "type": "function"
    }
  ],
  "bytecode": "0x608060405234801561001057600080fd5b50610295806100206000396000f300608060405260043610610057576000357c0100000000000000000000000000000000000000000000000000000000900463ffffffff168063398e62681461005c5780634136aa35146101185780638229e06a14610147575b600080fd5b34801561006857600080fd5b5061009d600480360381019080803573ffffffffffffffffffffffffffffffffffffffff1690602001909291905050506101ac565b6040518080602001828103825283818151815260200191508051906020019080838360005b838110156100dd5780820151818401526020810190506100c2565b50505050905090810190601f16801561010a5780820380516001836020036101000a031916815260200191505b509250505060405180910390f35b34801561012457600080fd5b5061012d61025c565b604051808215151515815260200191505060405180910390f35b34801561015357600080fd5b50610192600480360381019080803573ffffffffffffffffffffffffffffffffffffffff16906020019092919080359060200190929190505050610261565b604051808215151515815260200191505060405180910390f35b60006020528060005260406000206000915090508054600181600116156101000203166002900480601f0160208091040260200160405190810160405280929190818152602001828054600181600116156101000203166002900480156102545780601f1061022957610100808354040283529160200191610254565b820191906000526020600020905b81548152906001019060200180831161023757829003601f168201915b505050505081565b600090565b6000929150505600a165627a7a72305820d04c2bfb828f57aa0a26743411c8e27b5809a9ac289e6406bb9230139c26d3690029",
  "source": "pragma solidity ^0.4.24;\r\n\r\ncontract IdentityStore {\r\n    mapping(address => string) public tenantMapping;\r\n    \r\n    function isAlive() public pure returns(bool alive) {}\r\n    function hasAccountExpired(address userAddress, uint validDays ) view public returns(bool){}\r\n}",
  "sourcePath": "C:\\Users\\ansouz\\Microsoft-Identities-on-the-Ethereum-Blockchain\\corpcoin-smart-contract\\contracts\\IdentityStoreInterface.sol",
  "compiler": {
    "name": "solc",
    "version": "0.4.24+commit.e67f0147.Emscripten.clang"
  },
  "schemaVersion": "2.0.1",
  "updatedAt": "2018-07-24T00:43:05.533Z"
}