{
  "contractName": "IdentityStore",
  "abi": [
    {
      "constant": true,
      "inputs": [
        {
          "name": "",
          "type": "address"
        }
      ],
      "name": "tenantMapping",
      "outputs": [
        {
          "name": "",
          "type": "string"
        }
      ],
      "payable": false,
      "stateMutability": "view",
      "type": "function"
    },
    {
      "constant": true,
      "inputs": [],
      "name": "isAlive",
      "outputs": [
        {
          "name": "alive",
          "type": "bool"
        }
      ],
      "payable": false,
      "stateMutability": "pure",
      "type": "function"
    }
  ],
  "bytecode": "0x608060405234801561001057600080fd5b5061021d806100206000396000f30060806040526004361061004c576000357c0100000000000000000000000000000000000000000000000000000000900463ffffffff168063398e6268146100515780634136aa351461010d575b600080fd5b34801561005d57600080fd5b50610092600480360381019080803573ffffffffffffffffffffffffffffffffffffffff16906020019092919050505061013c565b6040518080602001828103825283818151815260200191508051906020019080838360005b838110156100d25780820151818401526020810190506100b7565b50505050905090810190601f1680156100ff5780820380516001836020036101000a031916815260200191505b509250505060405180910390f35b34801561011957600080fd5b506101226101ec565b604051808215151515815260200191505060405180910390f35b60006020528060005260406000206000915090508054600181600116156101000203166002900480601f0160208091040260200160405190810160405280929190818152602001828054600181600116156101000203166002900480156101e45780601f106101b9576101008083540402835291602001916101e4565b820191906000526020600020905b8154815290600101906020018083116101c757829003601f168201915b505050505081565b6000905600a165627a7a723058203d63441157f1ff54a64c27611b8b13d70d4a78a3146f9856c429e3f1bcbd36ae0029",
  "source": "pragma solidity ^0.4.24;\r\n\r\nimport \"./ERC721.sol\";\r\n\r\ncontract IdentityStore {\r\n    mapping(address => string) public tenantMapping;\r\n    \r\n    function isAlive() public pure returns(bool alive) {}\r\n}\r\n\r\ncontract CorpCoin is EIP20Interface {\r\n    \r\n    IdentityStore idStore;\r\n    uint256 constant private MAX_UINT256 = 2**256 - 1;\r\n    mapping (address => uint256) public balances;\r\n    mapping (address => mapping (address => uint256)) public allowed;\r\n\r\n    function External(address addr) public {\r\n        idStore = IdentityStore(addr);\r\n    }\r\n    \r\n    function helloWorld(address _user) constant public returns (string) {\r\n        return(idStore.tenantMapping(_user));\r\n    }\r\n    \r\n    function Ping() public constant returns(bool response) {\r\n        return idStore.isAlive();\r\n    }\r\n    \r\n    function onlyHiWorks() public constant returns (bool response) {\r\n        require(keccak256(\"Hi\") == keccak256(idStore.tenantMapping(msg.sender)));\r\n        return true;\r\n    }\r\n\r\n    function CorpCoin(uint256 _initialAmount) public {\r\n        balances[msg.sender] = _initialAmount;\r\n        totalSupply = _initialAmount;\r\n    }\r\n\r\n    function transfer(address _to, uint256 _value) public returns (bool success) {\r\n        require(balances[msg.sender] >= _value);\r\n        balances[msg.sender] -= _value;\r\n        balances[_to] += _value;\r\n        emit Transfer(msg.sender, _to, _value); \r\n        return true;\r\n    }\r\n\r\n    function transferFrom(address _from, address _to, uint256 _value) public returns (bool success) {\r\n        uint256 allowance = allowed[_from][msg.sender];\r\n        require(balances[_from] >= _value && allowance >= _value);\r\n        balances[_to] += _value;\r\n        balances[_from] -= _value;\r\n        if (allowance < MAX_UINT256) {\r\n            allowed[_from][msg.sender] -= _value;\r\n        }\r\n        emit Transfer(_from, _to, _value); \r\n        return true;\r\n    }\r\n\r\n    function balanceOf(address _owner) public view returns (uint256 balance) {\r\n        return balances[_owner];\r\n    }\r\n\r\n    function approve(address _spender, uint256 _value) public returns (bool success) {\r\n        allowed[msg.sender][_spender] = _value;\r\n        emit Approval(msg.sender, _spender, _value); \r\n        return true;\r\n    }\r\n\r\n    function allowance(address _owner, address _spender) public view returns (uint256 remaining) {\r\n        return allowed[_owner][_spender];\r\n    }\r\n}",
  "sourcePath": "C:\\Users\\asveerab\\Hack\\Microsoft-Identities-on-the-Ethereum-Blockchain\\corpcoin-smart-contract\\contracts\\CorpCoin_Sample.sol",
  "compiler": {
    "name": "solc",
    "version": "0.4.24+commit.e67f0147.Emscripten.clang"
  },
  "schemaVersion": "2.0.1",
  "updatedAt": "2018-07-24T00:13:29.094Z"
}